{
  "_format": "hh-sol-artifact-1",
  "contractName": "AaveMock",
  "sourceName": "contracts/AaveMock.sol",
  "abi": [
    {
      "inputs": [
        {
          "internalType": "address",
          "name": "user",
          "type": "address"
        }
      ],
      "name": "getRepayments",
      "outputs": [
        {
          "internalType": "uint256",
          "name": "",
          "type": "uint256"
        }
      ],
      "stateMutability": "view",
      "type": "function"
    },
    {
      "inputs": [],
      "name": "mockRepayment",
      "outputs": [],
      "stateMutability": "nonpayable",
      "type": "function"
    }
  ],
  "bytecode": "0x608060405234801561001057600080fd5b50610284806100206000396000f3fe608060405234801561001057600080fd5b50600436106100365760003560e01c80633f7c799c1461003b5780637d24de031461006b575b600080fd5b61005560048036038101906100509190610176565b610075565b60405161006291906101bc565b60405180910390f35b6100736100bd565b005b60008060008373ffffffffffffffffffffffffffffffffffffffff1673ffffffffffffffffffffffffffffffffffffffff168152602001908152602001600020549050919050565b6000803373ffffffffffffffffffffffffffffffffffffffff1673ffffffffffffffffffffffffffffffffffffffff168152602001908152602001600020600081548092919061010c90610206565b9190505550565b600080fd5b600073ffffffffffffffffffffffffffffffffffffffff82169050919050565b600061014382610118565b9050919050565b61015381610138565b811461015e57600080fd5b50565b6000813590506101708161014a565b92915050565b60006020828403121561018c5761018b610113565b5b600061019a84828501610161565b91505092915050565b6000819050919050565b6101b6816101a3565b82525050565b60006020820190506101d160008301846101ad565b92915050565b7f4e487b7100000000000000000000000000000000000000000000000000000000600052601160045260246000fd5b6000610211826101a3565b91507fffffffffffffffffffffffffffffffffffffffffffffffffffffffffffffffff8203610243576102426101d7565b5b60018201905091905056fea2646970667358221220a6633da92e9900975d2fe81450a256ef8ad8934642a1bdeb007a09bb6de36ea564736f6c63430008140033",
  "linkReferences": {},
  "deployedLinkReferences": {}
}