{
  "_format": "hh-sol-artifact-1",
  "contractName": "CredTrustRegistry",
  "sourceName": "contracts/CredTrustRegistry.sol",
  "abi": [
    {
      "inputs": [
        {
          "internalType": "address",
          "name": "_trustTokenAddress",
          "type": "address"
        }
      ],
      "stateMutability": "nonpayable",
      "type": "constructor"
    },
    {
      "anonymous": false,
      "inputs": [
        {
          "indexed": true,
          "internalType": "address",
          "name": "user",
          "type": "address"
        },
        {
          "indexed": true,
          "internalType": "address",
          "name": "attester",
          "type": "address"
        },
        {
          "indexed": false,
          "internalType": "uint256",
          "name": "amount",
          "type": "uint256"
        }
      ],
      "name": "Attested",
      "type": "event"
    },
    {
      "anonymous": false,
      "inputs": [
        {
          "indexed": true,
          "internalType": "address",
          "name": "user",
          "type": "address"
        },
        {
          "indexed": false,
          "internalType": "uint256",
          "name": "score",
          "type": "uint256"
        },
        {
          "indexed": false,
          "internalType": "string",
          "name": "ipfsHash",
          "type": "string"
        }
      ],
      "name": "ScoreUpdated",
      "type": "event"
    },
    {
      "anonymous": false,
      "inputs": [
        {
          "indexed": true,
          "internalType": "address",
          "name": "user",
          "type": "address"
        },
        {
          "indexed": false,
          "internalType": "uint256",
          "name": "amount",
          "type": "uint256"
        }
      ],
      "name": "Unstaked",
      "type": "event"
    },
    {
      "inputs": [
        {
          "internalType": "address",
          "name": "",
          "type": "address"
        },
        {
          "internalType": "uint256",
          "name": "",
          "type": "uint256"
        }
      ],
      "name": "attestations",
      "outputs": [
        {
          "internalType": "address",
          "name": "attester",
          "type": "address"
        },
        {
          "internalType": "uint256",
          "name": "amount",
          "type": "uint256"
        },
        {
          "internalType": "uint256",
          "name": "timestamp",
          "type": "uint256"
        }
      ],
      "stateMutability": "view",
      "type": "function"
    },
    {
      "inputs": [
        {
          "components": [
            {
              "internalType": "uint256",
              "name": "aaveRepayments",
              "type": "uint256"
            },
            {
              "internalType": "uint256",
              "name": "uniswapLpDuration",
              "type": "uint256"
            },
            {
              "internalType": "uint256",
              "name": "stakedAmount",
              "type": "uint256"
            },
            {
              "internalType": "uint256",
              "name": "transactionVolume",
              "type": "uint256"
            },
            {
              "internalType": "uint256",
              "name": "identityVerified",
              "type": "uint256"
            }
          ],
          "internalType": "struct ScoreCalculator.ScoreFactors",
          "name": "factors",
          "type": "tuple"
        }
      ],
      "name": "calculateScore",
      "outputs": [
        {
          "internalType": "uint256",
          "name": "",
          "type": "uint256"
        }
      ],
      "stateMutability": "pure",
      "type": "function"
    },
    {
      "inputs": [
        {
          "internalType": "address",
          "name": "user",
          "type": "address"
        }
      ],
      "name": "getAttestations",
      "outputs": [
        {
          "components": [
            {
              "internalType": "address",
              "name": "attester",
              "type": "address"
            },
            {
              "internalType": "uint256",
              "name": "amount",
              "type": "uint256"
            },
            {
              "internalType": "uint256",
              "name": "timestamp",
              "type": "uint256"
            }
          ],
          "internalType": "struct CredTrustRegistry.Attestation[]",
          "name": "",
          "type": "tuple[]"
        }
      ],
      "stateMutability": "view",
      "type": "function"
    },
    {
      "inputs": [
        {
          "internalType": "address",
          "name": "user",
          "type": "address"
        }
      ],
      "name": "getScore",
      "outputs": [
        {
          "internalType": "uint256",
          "name": "",
          "type": "uint256"
        }
      ],
      "stateMutability": "view",
      "type": "function"
    },
    {
      "inputs": [
        {
          "internalType": "address",
          "name": "",
          "type": "address"
        }
      ],
      "name": "scores",
      "outputs": [
        {
          "internalType": "uint256",
          "name": "score",
          "type": "uint256"
        },
        {
          "internalType": "uint256",
          "name": "lastUpdated",
          "type": "uint256"
        },
        {
          "internalType": "string",
          "name": "ipfsHash",
          "type": "string"
        }
      ],
      "stateMutability": "view",
      "type": "function"
    },
    {
      "inputs": [
        {
          "internalType": "address",
          "name": "user",
          "type": "address"
        },
        {
          "internalType": "uint256",
          "name": "amount",
          "type": "uint256"
        }
      ],
      "name": "stakeForUser",
      "outputs": [],
      "stateMutability": "nonpayable",
      "type": "function"
    },
    {
      "inputs": [
        {
          "internalType": "address",
          "name": "",
          "type": "address"
        }
      ],
      "name": "stakedAmounts",
      "outputs": [
        {
          "internalType": "uint256",
          "name": "",
          "type": "uint256"
        }
      ],
      "stateMutability": "view",
      "type": "function"
    },
    {
      "inputs": [],
      "name": "trustToken",
      "outputs": [
        {
          "internalType": "contract TrustToken",
          "name": "",
          "type": "address"
        }
      ],
      "stateMutability": "view",
      "type": "function"
    },
    {
      "inputs": [
        {
          "internalType": "uint256",
          "name": "amount",
          "type": "uint256"
        }
      ],
      "name": "unstake",
      "outputs": [],
      "stateMutability": "nonpayable",
      "type": "function"
    },
    {
      "inputs": [
        {
          "internalType": "address",
          "name": "user",
          "type": "address"
        },
        {
          "components": [
            {
              "internalType": "uint256",
              "name": "aaveRepayments",
              "type": "uint256"
            },
            {
              "internalType": "uint256",
              "name": "uniswapLpDuration",
              "type": "uint256"
            },
            {
              "internalType": "uint256",
              "name": "stakedAmount",
              "type": "uint256"
            },
            {
              "internalType": "uint256",
              "name": "transactionVolume",
              "type": "uint256"
            },
            {
              "internalType": "uint256",
              "name": "identityVerified",
              "type": "uint256"
            }
          ],
          "internalType": "struct ScoreCalculator.ScoreFactors",
          "name": "factors",
          "type": "tuple"
        },
        {
          "internalType": "string",
          "name": "ipfsHash",
          "type": "string"
        }
      ],
      "name": "updateScore",
      "outputs": [],
      "stateMutability": "nonpayable",
      "type": "function"
    }
  ],
  "bytecode": "0x60806040523480156200001157600080fd5b50604051620018b6380380620018b68339818101604052810190620000379190620000e8565b806000806101000a81548173ffffffffffffffffffffffffffffffffffffffff021916908373ffffffffffffffffffffffffffffffffffffffff160217905550506200011a565b600080fd5b600073ffffffffffffffffffffffffffffffffffffffff82169050919050565b6000620000b08262000083565b9050919050565b620000c281620000a3565b8114620000ce57600080fd5b50565b600081519050620000e281620000b7565b92915050565b6000602082840312156200010157620001006200007e565b5b60006200011184828501620000d1565b91505092915050565b61178c806200012a6000396000f3fe608060405234801561001057600080fd5b506004361061009e5760003560e01c8063aba6466c11610066578063aba6466c1461016d578063c657c6a51461019d578063d13deb2f146101cf578063d47875d0146101ed578063fd79c6a21461021d5761009e565b806310c1c103146100a357806313d378e0146100d3578063265555a5146100ef5780632e17de781461011f57806376dd110f1461013b575b600080fd5b6100bd60048036038101906100b89190610bcd565b610239565b6040516100ca9190610c13565b60405180910390f35b6100ed60048036038101906100e89190610e31565b610251565b005b61010960048036038101906101049190610ea0565b610384565b6040516101169190610c13565b60405180910390f35b61013960048036038101906101349190610ecd565b6104ac565b005b61015560048036038101906101509190610bcd565b610674565b60405161016493929190610f79565b60405180910390f35b61018760048036038101906101829190610bcd565b610726565b60405161019491906110c6565b60405180910390f35b6101b760048036038101906101b291906110e8565b61082e565b6040516101c693929190611137565b60405180910390f35b6101d7610895565b6040516101e491906111cd565b60405180910390f35b61020760048036038101906102029190610bcd565b6108b9565b6040516102149190610c13565b60405180910390f35b610237600480360381019061023291906110e8565b610905565b005b60036020528060005260406000206000915090505481565b600360008473ffffffffffffffffffffffffffffffffffffffff1673ffffffffffffffffffffffffffffffffffffffff1681526020019081526020016000205482604001818152505060006102a583610384565b9050604051806060016040528082815260200142815260200183815250600160008673ffffffffffffffffffffffffffffffffffffffff1673ffffffffffffffffffffffffffffffffffffffff1681526020019081526020016000206000820151816000015560208201518160010155604082015181600201908161032a91906113ea565b509050508373ffffffffffffffffffffffffffffffffffffffff167f2b535fbf4d2281f734a35408583a14d4e2b28653b00d761613e8758399dd6e6d82846040516103769291906114bc565b60405180910390a250505050565b60008060009050606461015e846000015161039f919061151b565b6103a9919061158c565b816103b491906115bd565b9050606460fa84602001516103c9919061151b565b6103d3919061158c565b816103de91906115bd565b90506000683635c9adc5dea00000606485604001516103fd919061151b565b610407919061158c565b9050606481111561041757606490505b606460fa82610426919061151b565b610430919061158c565b8261043b91906115bd565b9150606480856060015161044f919061151b565b610459919061158c565b8261046491906115bd565b9150606460328560800151610479919061151b565b610483919061158c565b8261048e91906115bd565b9150610384821161049f57816104a3565b6103845b92505050919050565b80600360003373ffffffffffffffffffffffffffffffffffffffff1673ffffffffffffffffffffffffffffffffffffffff16815260200190815260200160002054101561052e576040517f08c379a00000000000000000000000000000000000000000000000000000000081526004016105259061163d565b60405180910390fd5b80600360003373ffffffffffffffffffffffffffffffffffffffff1673ffffffffffffffffffffffffffffffffffffffff168152602001908152602001600020600082825461057d919061165d565b9250508190555060008054906101000a900473ffffffffffffffffffffffffffffffffffffffff1673ffffffffffffffffffffffffffffffffffffffff1663a9059cbb33836040518363ffffffff1660e01b81526004016105df929190611691565b6020604051808303816000875af11580156105fe573d6000803e3d6000fd5b505050506040513d601f19601f8201168201806040525081019061062291906116f2565b503373ffffffffffffffffffffffffffffffffffffffff167f0f5bb82176feb1b5e747e28471aa92156a04d9f3ab9f45f28e2d704232b93f75826040516106699190610c13565b60405180910390a250565b60016020528060005260406000206000915090508060000154908060010154908060020180546106a390611217565b80601f01602080910402602001604051908101604052809291908181526020018280546106cf90611217565b801561071c5780601f106106f15761010080835404028352916020019161071c565b820191906000526020600020905b8154815290600101906020018083116106ff57829003601f168201915b5050505050905083565b6060600260008373ffffffffffffffffffffffffffffffffffffffff1673ffffffffffffffffffffffffffffffffffffffff168152602001908152602001600020805480602002602001604051908101604052809291908181526020016000905b8282101561082357838290600052602060002090600302016040518060600160405290816000820160009054906101000a900473ffffffffffffffffffffffffffffffffffffffff1673ffffffffffffffffffffffffffffffffffffffff1673ffffffffffffffffffffffffffffffffffffffff1681526020016001820154815260200160028201548152505081526020019060010190610787565b505050509050919050565b6002602052816000526040600020818154811061084a57600080fd5b9060005260206000209060030201600091509150508060000160009054906101000a900473ffffffffffffffffffffffffffffffffffffffff16908060010154908060020154905083565b60008054906101000a900473ffffffffffffffffffffffffffffffffffffffff1681565b6000600160008373ffffffffffffffffffffffffffffffffffffffff1673ffffffffffffffffffffffffffffffffffffffff168152602001908152602001600020600001549050919050565b60008054906101000a900473ffffffffffffffffffffffffffffffffffffffff1673ffffffffffffffffffffffffffffffffffffffff166323b872dd3330846040518463ffffffff1660e01b81526004016109629392919061171f565b6020604051808303816000875af1158015610981573d6000803e3d6000fd5b505050506040513d601f19601f820116820180604052508101906109a591906116f2565b5080600360003373ffffffffffffffffffffffffffffffffffffffff1673ffffffffffffffffffffffffffffffffffffffff16815260200190815260200160002060008282546109f591906115bd565b92505081905550600260008373ffffffffffffffffffffffffffffffffffffffff1673ffffffffffffffffffffffffffffffffffffffff16815260200190815260200160002060405180606001604052803373ffffffffffffffffffffffffffffffffffffffff16815260200183815260200142815250908060018154018082558091505060019003906000526020600020906003020160009091909190915060008201518160000160006101000a81548173ffffffffffffffffffffffffffffffffffffffff021916908373ffffffffffffffffffffffffffffffffffffffff160217905550602082015181600101556040820151816002015550503373ffffffffffffffffffffffffffffffffffffffff168273ffffffffffffffffffffffffffffffffffffffff167f2680c0e9ed33c1a20ad46318cd3d5d435f27264df4db4ea9b7b3499211c9626d83604051610b4f9190610c13565b60405180910390a35050565b6000604051905090565b600080fd5b600080fd5b600073ffffffffffffffffffffffffffffffffffffffff82169050919050565b6000610b9a82610b6f565b9050919050565b610baa81610b8f565b8114610bb557600080fd5b50565b600081359050610bc781610ba1565b92915050565b600060208284031215610be357610be2610b65565b5b6000610bf184828501610bb8565b91505092915050565b6000819050919050565b610c0d81610bfa565b82525050565b6000602082019050610c286000830184610c04565b92915050565b600080fd5b6000601f19601f8301169050919050565b7f4e487b7100000000000000000000000000000000000000000000000000000000600052604160045260246000fd5b610c7c82610c33565b810181811067ffffffffffffffff82111715610c9b57610c9a610c44565b5b80604052505050565b6000610cae610b5b565b9050610cba8282610c73565b919050565b610cc881610bfa565b8114610cd357600080fd5b50565b600081359050610ce581610cbf565b92915050565b600060a08284031215610d0157610d00610c2e565b5b610d0b60a0610ca4565b90506000610d1b84828501610cd6565b6000830152506020610d2f84828501610cd6565b6020830152506040610d4384828501610cd6565b6040830152506060610d5784828501610cd6565b6060830152506080610d6b84828501610cd6565b60808301525092915050565b600080fd5b600080fd5b600067ffffffffffffffff821115610d9c57610d9b610c44565b5b610da582610c33565b9050602081019050919050565b82818337600083830152505050565b6000610dd4610dcf84610d81565b610ca4565b905082815260208101848484011115610df057610def610d7c565b5b610dfb848285610db2565b509392505050565b600082601f830112610e1857610e17610d77565b5b8135610e28848260208601610dc1565b91505092915050565b600080600060e08486031215610e4a57610e49610b65565b5b6000610e5886828701610bb8565b9350506020610e6986828701610ceb565b92505060c084013567ffffffffffffffff811115610e8a57610e89610b6a565b5b610e9686828701610e03565b9150509250925092565b600060a08284031215610eb657610eb5610b65565b5b6000610ec484828501610ceb565b91505092915050565b600060208284031215610ee357610ee2610b65565b5b6000610ef184828501610cd6565b91505092915050565b600081519050919050565b600082825260208201905092915050565b60005b83811015610f34578082015181840152602081019050610f19565b60008484015250505050565b6000610f4b82610efa565b610f558185610f05565b9350610f65818560208601610f16565b610f6e81610c33565b840191505092915050565b6000606082019050610f8e6000830186610c04565b610f9b6020830185610c04565b8181036040830152610fad8184610f40565b9050949350505050565b600081519050919050565b600082825260208201905092915050565b6000819050602082019050919050565b610fec81610b8f565b82525050565b610ffb81610bfa565b82525050565b6060820160008201516110176000850182610fe3565b50602082015161102a6020850182610ff2565b50604082015161103d6040850182610ff2565b50505050565b600061104f8383611001565b60608301905092915050565b6000602082019050919050565b600061107382610fb7565b61107d8185610fc2565b935061108883610fd3565b8060005b838110156110b95781516110a08882611043565b97506110ab8361105b565b92505060018101905061108c565b5085935050505092915050565b600060208201905081810360008301526110e08184611068565b905092915050565b600080604083850312156110ff576110fe610b65565b5b600061110d85828601610bb8565b925050602061111e85828601610cd6565b9150509250929050565b61113181610b8f565b82525050565b600060608201905061114c6000830186611128565b6111596020830185610c04565b6111666040830184610c04565b949350505050565b6000819050919050565b600061119361118e61118984610b6f565b61116e565b610b6f565b9050919050565b60006111a582611178565b9050919050565b60006111b78261119a565b9050919050565b6111c7816111ac565b82525050565b60006020820190506111e260008301846111be565b92915050565b7f4e487b7100000000000000000000000000000000000000000000000000000000600052602260045260246000fd5b6000600282049050600182168061122f57607f821691505b602082108103611242576112416111e8565b5b50919050565b60008190508160005260206000209050919050565b60006020601f8301049050919050565b600082821b905092915050565b6000600883026112aa7fffffffffffffffffffffffffffffffffffffffffffffffffffffffffffffffff8261126d565b6112b4868361126d565b95508019841693508086168417925050509392505050565b60006112e76112e26112dd84610bfa565b61116e565b610bfa565b9050919050565b6000819050919050565b611301836112cc565b61131561130d826112ee565b84845461127a565b825550505050565b600090565b61132a61131d565b6113358184846112f8565b505050565b5b818110156113595761134e600082611322565b60018101905061133b565b5050565b601f82111561139e5761136f81611248565b6113788461125d565b81016020851015611387578190505b61139b6113938561125d565b83018261133a565b50505b505050565b600082821c905092915050565b60006113c1600019846008026113a3565b1980831691505092915050565b60006113da83836113b0565b9150826002028217905092915050565b6113f382610efa565b67ffffffffffffffff81111561140c5761140b610c44565b5b6114168254611217565b61142182828561135d565b600060209050601f8311600181146114545760008415611442578287015190505b61144c85826113ce565b8655506114b4565b601f19841661146286611248565b60005b8281101561148a57848901518255600182019150602085019450602081019050611465565b868310156114a757848901516114a3601f8916826113b0565b8355505b6001600288020188555050505b505050505050565b60006040820190506114d16000830185610c04565b81810360208301526114e38184610f40565b90509392505050565b7f4e487b7100000000000000000000000000000000000000000000000000000000600052601160045260246000fd5b600061152682610bfa565b915061153183610bfa565b925082820261153f81610bfa565b91508282048414831517611556576115556114ec565b5b5092915050565b7f4e487b7100000000000000000000000000000000000000000000000000000000600052601260045260246000fd5b600061159782610bfa565b91506115a283610bfa565b9250826115b2576115b161155d565b5b828204905092915050565b60006115c882610bfa565b91506115d383610bfa565b92508282019050808211156115eb576115ea6114ec565b5b92915050565b7f496e73756666696369656e74207374616b650000000000000000000000000000600082015250565b6000611627601283610f05565b9150611632826115f1565b602082019050919050565b600060208201905081810360008301526116568161161a565b9050919050565b600061166882610bfa565b915061167383610bfa565b925082820390508181111561168b5761168a6114ec565b5b92915050565b60006040820190506116a66000830185611128565b6116b36020830184610c04565b9392505050565b60008115159050919050565b6116cf816116ba565b81146116da57600080fd5b50565b6000815190506116ec816116c6565b92915050565b60006020828403121561170857611707610b65565b5b6000611716848285016116dd565b91505092915050565b60006060820190506117346000830186611128565b6117416020830185611128565b61174e6040830184610c04565b94935050505056fea26469706673582212205b5a72accf868d1e7bbb0fd0c136e8e07e7badcf3ad23009129cc39ff0dfbadc64736f6c63430008140033",
  "linkReferences": {},
  "deployedLinkReferences": {}
}