{
  "_format": "hh-sol-artifact-1",
  "contractName": "CredTrustRegistry",
  "sourceName": "contracts/CredTrustRegistry.sol",
  "abi": [
    {
      "inputs": [
        {
          "internalType": "address",
          "name": "_trustTokenAddress",
          "type": "address"
        }
      ],
      "stateMutability": "nonpayable",
      "type": "constructor"
    },
    {
      "anonymous": false,
      "inputs": [
        {
          "indexed": true,
          "internalType": "address",
          "name": "user",
          "type": "address"
        },
        {
          "indexed": true,
          "internalType": "address",
          "name": "attester",
          "type": "address"
        },
        {
          "indexed": false,
          "internalType": "uint256",
          "name": "amount",
          "type": "uint256"
        }
      ],
      "name": "Attested",
      "type": "event"
    },
    {
      "anonymous": false,
      "inputs": [
        {
          "indexed": true,
          "internalType": "address",
          "name": "user",
          "type": "address"
        },
        {
          "indexed": false,
          "internalType": "uint256",
          "name": "score",
          "type": "uint256"
        },
        {
          "indexed": false,
          "internalType": "string",
          "name": "ipfsHash",
          "type": "string"
        }
      ],
      "name": "ScoreUpdated",
      "type": "event"
    },
    {
      "anonymous": false,
      "inputs": [
        {
          "indexed": true,
          "internalType": "address",
          "name": "user",
          "type": "address"
        },
        {
          "indexed": false,
          "internalType": "uint256",
          "name": "amount",
          "type": "uint256"
        }
      ],
      "name": "Unstaked",
      "type": "event"
    },
    {
      "inputs": [
        {
          "internalType": "address",
          "name": "",
          "type": "address"
        },
        {
          "internalType": "uint256",
          "name": "",
          "type": "uint256"
        }
      ],
      "name": "attestations",
      "outputs": [
        {
          "internalType": "address",
          "name": "attester",
          "type": "address"
        },
        {
          "internalType": "uint256",
          "name": "amount",
          "type": "uint256"
        },
        {
          "internalType": "uint256",
          "name": "timestamp",
          "type": "uint256"
        }
      ],
      "stateMutability": "view",
      "type": "function"
    },
    {
      "inputs": [
        {
          "components": [
            {
              "internalType": "uint256",
              "name": "aaveRepayments",
              "type": "uint256"
            },
            {
              "internalType": "uint256",
              "name": "uniswapLpDuration",
              "type": "uint256"
            },
            {
              "internalType": "uint256",
              "name": "stakingAge",
              "type": "uint256"
            },
            {
              "internalType": "uint256",
              "name": "transactionVolume",
              "type": "uint256"
            },
            {
              "internalType": "uint256",
              "name": "identityVerified",
              "type": "uint256"
            }
          ],
          "internalType": "struct ScoreCalculator.ScoreFactors",
          "name": "factors",
          "type": "tuple"
        }
      ],
      "name": "calculateScore",
      "outputs": [
        {
          "internalType": "uint256",
          "name": "",
          "type": "uint256"
        }
      ],
      "stateMutability": "pure",
      "type": "function"
    },
    {
      "inputs": [
        {
          "internalType": "address",
          "name": "user",
          "type": "address"
        }
      ],
      "name": "getAttestations",
      "outputs": [
        {
          "components": [
            {
              "internalType": "address",
              "name": "attester",
              "type": "address"
            },
            {
              "internalType": "uint256",
              "name": "amount",
              "type": "uint256"
            },
            {
              "internalType": "uint256",
              "name": "timestamp",
              "type": "uint256"
            }
          ],
          "internalType": "struct CredTrustRegistry.Attestation[]",
          "name": "",
          "type": "tuple[]"
        }
      ],
      "stateMutability": "view",
      "type": "function"
    },
    {
      "inputs": [
        {
          "internalType": "address",
          "name": "user",
          "type": "address"
        }
      ],
      "name": "getScore",
      "outputs": [
        {
          "internalType": "uint256",
          "name": "",
          "type": "uint256"
        }
      ],
      "stateMutability": "view",
      "type": "function"
    },
    {
      "inputs": [
        {
          "internalType": "address",
          "name": "",
          "type": "address"
        }
      ],
      "name": "scores",
      "outputs": [
        {
          "internalType": "uint256",
          "name": "score",
          "type": "uint256"
        },
        {
          "internalType": "uint256",
          "name": "lastUpdated",
          "type": "uint256"
        },
        {
          "internalType": "string",
          "name": "ipfsHash",
          "type": "string"
        }
      ],
      "stateMutability": "view",
      "type": "function"
    },
    {
      "inputs": [
        {
          "internalType": "address",
          "name": "user",
          "type": "address"
        },
        {
          "internalType": "uint256",
          "name": "amount",
          "type": "uint256"
        }
      ],
      "name": "stakeForUser",
      "outputs": [],
      "stateMutability": "nonpayable",
      "type": "function"
    },
    {
      "inputs": [
        {
          "internalType": "address",
          "name": "",
          "type": "address"
        }
      ],
      "name": "stakedAmounts",
      "outputs": [
        {
          "internalType": "uint256",
          "name": "",
          "type": "uint256"
        }
      ],
      "stateMutability": "view",
      "type": "function"
    },
    {
      "inputs": [],
      "name": "trustToken",
      "outputs": [
        {
          "internalType": "contract TrustToken",
          "name": "",
          "type": "address"
        }
      ],
      "stateMutability": "view",
      "type": "function"
    },
    {
      "inputs": [
        {
          "internalType": "uint256",
          "name": "amount",
          "type": "uint256"
        }
      ],
      "name": "unstake",
      "outputs": [],
      "stateMutability": "nonpayable",
      "type": "function"
    },
    {
      "inputs": [
        {
          "internalType": "address",
          "name": "user",
          "type": "address"
        },
        {
          "components": [
            {
              "internalType": "uint256",
              "name": "aaveRepayments",
              "type": "uint256"
            },
            {
              "internalType": "uint256",
              "name": "uniswapLpDuration",
              "type": "uint256"
            },
            {
              "internalType": "uint256",
              "name": "stakingAge",
              "type": "uint256"
            },
            {
              "internalType": "uint256",
              "name": "transactionVolume",
              "type": "uint256"
            },
            {
              "internalType": "uint256",
              "name": "identityVerified",
              "type": "uint256"
            }
          ],
          "internalType": "struct ScoreCalculator.ScoreFactors",
          "name": "factors",
          "type": "tuple"
        },
        {
          "internalType": "string",
          "name": "ipfsHash",
          "type": "string"
        }
      ],
      "name": "updateScore",
      "outputs": [],
      "stateMutability": "nonpayable",
      "type": "function"
    }
  ],
  "bytecode": "0x60806040523480156200001157600080fd5b506040516200183b3803806200183b8339818101604052810190620000379190620000e8565b806000806101000a81548173ffffffffffffffffffffffffffffffffffffffff021916908373ffffffffffffffffffffffffffffffffffffffff160217905550506200011a565b600080fd5b600073ffffffffffffffffffffffffffffffffffffffff82169050919050565b6000620000b08262000083565b9050919050565b620000c281620000a3565b8114620000ce57600080fd5b50565b600081519050620000e281620000b7565b92915050565b6000602082840312156200010157620001006200007e565b5b60006200011184828501620000d1565b91505092915050565b611711806200012a6000396000f3fe608060405234801561001057600080fd5b506004361061009e5760003560e01c8063aba6466c11610066578063aba6466c1461016d578063c657c6a51461019d578063d13deb2f146101cf578063d47875d0146101ed578063fd79c6a21461021d5761009e565b806310c1c103146100a357806313d378e0146100d3578063265555a5146100ef5780632e17de781461011f57806376dd110f1461013b575b600080fd5b6100bd60048036038101906100b89190610b52565b610239565b6040516100ca9190610b98565b60405180910390f35b6100ed60048036038101906100e89190610db6565b610251565b005b61010960048036038101906101049190610e25565b61033b565b6040516101169190610b98565b60405180910390f35b61013960048036038101906101349190610e52565b610431565b005b61015560048036038101906101509190610b52565b6105f9565b60405161016493929190610efe565b60405180910390f35b61018760048036038101906101829190610b52565b6106ab565b604051610194919061104b565b60405180910390f35b6101b760048036038101906101b2919061106d565b6107b3565b6040516101c6939291906110bc565b60405180910390f35b6101d761081a565b6040516101e49190611152565b60405180910390f35b61020760048036038101906102029190610b52565b61083e565b6040516102149190610b98565b60405180910390f35b6102376004803603810190610232919061106d565b61088a565b005b60036020528060005260406000206000915090505481565b600061025c8361033b565b9050604051806060016040528082815260200142815260200183815250600160008673ffffffffffffffffffffffffffffffffffffffff1673ffffffffffffffffffffffffffffffffffffffff168152602001908152602001600020600082015181600001556020820151816001015560408201518160020190816102e1919061136f565b509050508373ffffffffffffffffffffffffffffffffffffffff167f2b535fbf4d2281f734a35408583a14d4e2b28653b00d761613e8758399dd6e6d828460405161032d929190611441565b60405180910390a250505050565b600080600090506064610190846000015161035691906114a0565b6103609190611511565b8161036b9190611542565b9050606461012c846020015161038191906114a0565b61038b9190611511565b816103969190611542565b9050606460c884604001516103ab91906114a0565b6103b59190611511565b816103c09190611542565b90506064603284606001516103d591906114a0565b6103df9190611511565b816103ea9190611542565b90506064603284608001516103ff91906114a0565b6104099190611511565b816104149190611542565b905061038481116104255780610429565b6103845b915050919050565b80600360003373ffffffffffffffffffffffffffffffffffffffff1673ffffffffffffffffffffffffffffffffffffffff1681526020019081526020016000205410156104b3576040517f08c379a00000000000000000000000000000000000000000000000000000000081526004016104aa906115c2565b60405180910390fd5b80600360003373ffffffffffffffffffffffffffffffffffffffff1673ffffffffffffffffffffffffffffffffffffffff168152602001908152602001600020600082825461050291906115e2565b9250508190555060008054906101000a900473ffffffffffffffffffffffffffffffffffffffff1673ffffffffffffffffffffffffffffffffffffffff1663a9059cbb33836040518363ffffffff1660e01b8152600401610564929190611616565b6020604051808303816000875af1158015610583573d6000803e3d6000fd5b505050506040513d601f19601f820116820180604052508101906105a79190611677565b503373ffffffffffffffffffffffffffffffffffffffff167f0f5bb82176feb1b5e747e28471aa92156a04d9f3ab9f45f28e2d704232b93f75826040516105ee9190610b98565b60405180910390a250565b60016020528060005260406000206000915090508060000154908060010154908060020180546106289061119c565b80601f01602080910402602001604051908101604052809291908181526020018280546106549061119c565b80156106a15780601f10610676576101008083540402835291602001916106a1565b820191906000526020600020905b81548152906001019060200180831161068457829003601f168201915b5050505050905083565b6060600260008373ffffffffffffffffffffffffffffffffffffffff1673ffffffffffffffffffffffffffffffffffffffff168152602001908152602001600020805480602002602001604051908101604052809291908181526020016000905b828210156107a857838290600052602060002090600302016040518060600160405290816000820160009054906101000a900473ffffffffffffffffffffffffffffffffffffffff1673ffffffffffffffffffffffffffffffffffffffff1673ffffffffffffffffffffffffffffffffffffffff168152602001600182015481526020016002820154815250508152602001906001019061070c565b505050509050919050565b600260205281600052604060002081815481106107cf57600080fd5b9060005260206000209060030201600091509150508060000160009054906101000a900473ffffffffffffffffffffffffffffffffffffffff16908060010154908060020154905083565b60008054906101000a900473ffffffffffffffffffffffffffffffffffffffff1681565b6000600160008373ffffffffffffffffffffffffffffffffffffffff1673ffffffffffffffffffffffffffffffffffffffff168152602001908152602001600020600001549050919050565b60008054906101000a900473ffffffffffffffffffffffffffffffffffffffff1673ffffffffffffffffffffffffffffffffffffffff166323b872dd3330846040518463ffffffff1660e01b81526004016108e7939291906116a4565b6020604051808303816000875af1158015610906573d6000803e3d6000fd5b505050506040513d601f19601f8201168201806040525081019061092a9190611677565b5080600360003373ffffffffffffffffffffffffffffffffffffffff1673ffffffffffffffffffffffffffffffffffffffff168152602001908152602001600020600082825461097a9190611542565b92505081905550600260008373ffffffffffffffffffffffffffffffffffffffff1673ffffffffffffffffffffffffffffffffffffffff16815260200190815260200160002060405180606001604052803373ffffffffffffffffffffffffffffffffffffffff16815260200183815260200142815250908060018154018082558091505060019003906000526020600020906003020160009091909190915060008201518160000160006101000a81548173ffffffffffffffffffffffffffffffffffffffff021916908373ffffffffffffffffffffffffffffffffffffffff160217905550602082015181600101556040820151816002015550503373ffffffffffffffffffffffffffffffffffffffff168273ffffffffffffffffffffffffffffffffffffffff167f2680c0e9ed33c1a20ad46318cd3d5d435f27264df4db4ea9b7b3499211c9626d83604051610ad49190610b98565b60405180910390a35050565b6000604051905090565b600080fd5b600080fd5b600073ffffffffffffffffffffffffffffffffffffffff82169050919050565b6000610b1f82610af4565b9050919050565b610b2f81610b14565b8114610b3a57600080fd5b50565b600081359050610b4c81610b26565b92915050565b600060208284031215610b6857610b67610aea565b5b6000610b7684828501610b3d565b91505092915050565b6000819050919050565b610b9281610b7f565b82525050565b6000602082019050610bad6000830184610b89565b92915050565b600080fd5b6000601f19601f8301169050919050565b7f4e487b7100000000000000000000000000000000000000000000000000000000600052604160045260246000fd5b610c0182610bb8565b810181811067ffffffffffffffff82111715610c2057610c1f610bc9565b5b80604052505050565b6000610c33610ae0565b9050610c3f8282610bf8565b919050565b610c4d81610b7f565b8114610c5857600080fd5b50565b600081359050610c6a81610c44565b92915050565b600060a08284031215610c8657610c85610bb3565b5b610c9060a0610c29565b90506000610ca084828501610c5b565b6000830152506020610cb484828501610c5b565b6020830152506040610cc884828501610c5b565b6040830152506060610cdc84828501610c5b565b6060830152506080610cf084828501610c5b565b60808301525092915050565b600080fd5b600080fd5b600067ffffffffffffffff821115610d2157610d20610bc9565b5b610d2a82610bb8565b9050602081019050919050565b82818337600083830152505050565b6000610d59610d5484610d06565b610c29565b905082815260208101848484011115610d7557610d74610d01565b5b610d80848285610d37565b509392505050565b600082601f830112610d9d57610d9c610cfc565b5b8135610dad848260208601610d46565b91505092915050565b600080600060e08486031215610dcf57610dce610aea565b5b6000610ddd86828701610b3d565b9350506020610dee86828701610c70565b92505060c084013567ffffffffffffffff811115610e0f57610e0e610aef565b5b610e1b86828701610d88565b9150509250925092565b600060a08284031215610e3b57610e3a610aea565b5b6000610e4984828501610c70565b91505092915050565b600060208284031215610e6857610e67610aea565b5b6000610e7684828501610c5b565b91505092915050565b600081519050919050565b600082825260208201905092915050565b60005b83811015610eb9578082015181840152602081019050610e9e565b60008484015250505050565b6000610ed082610e7f565b610eda8185610e8a565b9350610eea818560208601610e9b565b610ef381610bb8565b840191505092915050565b6000606082019050610f136000830186610b89565b610f206020830185610b89565b8181036040830152610f328184610ec5565b9050949350505050565b600081519050919050565b600082825260208201905092915050565b6000819050602082019050919050565b610f7181610b14565b82525050565b610f8081610b7f565b82525050565b606082016000820151610f9c6000850182610f68565b506020820151610faf6020850182610f77565b506040820151610fc26040850182610f77565b50505050565b6000610fd48383610f86565b60608301905092915050565b6000602082019050919050565b6000610ff882610f3c565b6110028185610f47565b935061100d83610f58565b8060005b8381101561103e5781516110258882610fc8565b975061103083610fe0565b925050600181019050611011565b5085935050505092915050565b600060208201905081810360008301526110658184610fed565b905092915050565b6000806040838503121561108457611083610aea565b5b600061109285828601610b3d565b92505060206110a385828601610c5b565b9150509250929050565b6110b681610b14565b82525050565b60006060820190506110d160008301866110ad565b6110de6020830185610b89565b6110eb6040830184610b89565b949350505050565b6000819050919050565b600061111861111361110e84610af4565b6110f3565b610af4565b9050919050565b600061112a826110fd565b9050919050565b600061113c8261111f565b9050919050565b61114c81611131565b82525050565b60006020820190506111676000830184611143565b92915050565b7f4e487b7100000000000000000000000000000000000000000000000000000000600052602260045260246000fd5b600060028204905060018216806111b457607f821691505b6020821081036111c7576111c661116d565b5b50919050565b60008190508160005260206000209050919050565b60006020601f8301049050919050565b600082821b905092915050565b60006008830261122f7fffffffffffffffffffffffffffffffffffffffffffffffffffffffffffffffff826111f2565b61123986836111f2565b95508019841693508086168417925050509392505050565b600061126c61126761126284610b7f565b6110f3565b610b7f565b9050919050565b6000819050919050565b61128683611251565b61129a61129282611273565b8484546111ff565b825550505050565b600090565b6112af6112a2565b6112ba81848461127d565b505050565b5b818110156112de576112d36000826112a7565b6001810190506112c0565b5050565b601f821115611323576112f4816111cd565b6112fd846111e2565b8101602085101561130c578190505b611320611318856111e2565b8301826112bf565b50505b505050565b600082821c905092915050565b600061134660001984600802611328565b1980831691505092915050565b600061135f8383611335565b9150826002028217905092915050565b61137882610e7f565b67ffffffffffffffff81111561139157611390610bc9565b5b61139b825461119c565b6113a68282856112e2565b600060209050601f8311600181146113d957600084156113c7578287015190505b6113d18582611353565b865550611439565b601f1984166113e7866111cd565b60005b8281101561140f578489015182556001820191506020850194506020810190506113ea565b8683101561142c5784890151611428601f891682611335565b8355505b6001600288020188555050505b505050505050565b60006040820190506114566000830185610b89565b81810360208301526114688184610ec5565b90509392505050565b7f4e487b7100000000000000000000000000000000000000000000000000000000600052601160045260246000fd5b60006114ab82610b7f565b91506114b683610b7f565b92508282026114c481610b7f565b915082820484148315176114db576114da611471565b5b5092915050565b7f4e487b7100000000000000000000000000000000000000000000000000000000600052601260045260246000fd5b600061151c82610b7f565b915061152783610b7f565b925082611537576115366114e2565b5b828204905092915050565b600061154d82610b7f565b915061155883610b7f565b92508282019050808211156115705761156f611471565b5b92915050565b7f496e73756666696369656e74207374616b650000000000000000000000000000600082015250565b60006115ac601283610e8a565b91506115b782611576565b602082019050919050565b600060208201905081810360008301526115db8161159f565b9050919050565b60006115ed82610b7f565b91506115f883610b7f565b92508282039050818111156116105761160f611471565b5b92915050565b600060408201905061162b60008301856110ad565b6116386020830184610b89565b9392505050565b60008115159050919050565b6116548161163f565b811461165f57600080fd5b50565b6000815190506116718161164b565b92915050565b60006020828403121561168d5761168c610aea565b5b600061169b84828501611662565b91505092915050565b60006060820190506116b960008301866110ad565b6116c660208301856110ad565b6116d36040830184610b89565b94935050505056fea26469706673582212204e51650adc9d5d35fa67ff742d5e7d83b21d0faafc99e8c7502ea87fb7de648664736f6c63430008140033",
  "linkReferences": {},
  "deployedLinkReferences": {}
}