{
  "_format": "hh-sol-artifact-1",
  "contractName": "CredTrustRegistry",
  "sourceName": "contracts/CredTrustRegistry.sol",
  "abi": [
    {
      "inputs": [
        {
          "internalType": "address",
          "name": "_trustTokenAddress",
          "type": "address"
        }
      ],
      "stateMutability": "nonpayable",
      "type": "constructor"
    },
    {
      "anonymous": false,
      "inputs": [
        {
          "indexed": true,
          "internalType": "address",
          "name": "user",
          "type": "address"
        },
        {
          "indexed": true,
          "internalType": "address",
          "name": "attester",
          "type": "address"
        },
        {
          "indexed": false,
          "internalType": "uint256",
          "name": "amount",
          "type": "uint256"
        }
      ],
      "name": "Attested",
      "type": "event"
    },
    {
      "anonymous": false,
      "inputs": [
        {
          "indexed": true,
          "internalType": "address",
          "name": "user",
          "type": "address"
        },
        {
          "indexed": false,
          "internalType": "uint256",
          "name": "score",
          "type": "uint256"
        },
        {
          "indexed": false,
          "internalType": "string",
          "name": "ipfsHash",
          "type": "string"
        }
      ],
      "name": "ScoreUpdated",
      "type": "event"
    },
    {
      "anonymous": false,
      "inputs": [
        {
          "indexed": true,
          "internalType": "address",
          "name": "user",
          "type": "address"
        },
        {
          "indexed": false,
          "internalType": "uint256",
          "name": "amount",
          "type": "uint256"
        }
      ],
      "name": "Unstaked",
      "type": "event"
    },
    {
      "inputs": [
        {
          "internalType": "address",
          "name": "",
          "type": "address"
        },
        {
          "internalType": "uint256",
          "name": "",
          "type": "uint256"
        }
      ],
      "name": "attestations",
      "outputs": [
        {
          "internalType": "address",
          "name": "attester",
          "type": "address"
        },
        {
          "internalType": "uint256",
          "name": "amount",
          "type": "uint256"
        },
        {
          "internalType": "uint256",
          "name": "timestamp",
          "type": "uint256"
        }
      ],
      "stateMutability": "view",
      "type": "function"
    },
    {
      "inputs": [
        {
          "components": [
            {
              "internalType": "uint256",
              "name": "aaveRepayments",
              "type": "uint256"
            },
            {
              "internalType": "uint256",
              "name": "uniswapLpDuration",
              "type": "uint256"
            },
            {
              "internalType": "uint256",
              "name": "stakedAmount",
              "type": "uint256"
            },
            {
              "internalType": "uint256",
              "name": "transactionVolume",
              "type": "uint256"
            },
            {
              "internalType": "uint256",
              "name": "identityVerified",
              "type": "uint256"
            }
          ],
          "internalType": "struct ScoreCalculator.ScoreFactors",
          "name": "factors",
          "type": "tuple"
        }
      ],
      "name": "calculateScore",
      "outputs": [
        {
          "internalType": "uint256",
          "name": "",
          "type": "uint256"
        }
      ],
      "stateMutability": "pure",
      "type": "function"
    },
    {
      "inputs": [
        {
          "internalType": "address",
          "name": "user",
          "type": "address"
        }
      ],
      "name": "getAttestations",
      "outputs": [
        {
          "components": [
            {
              "internalType": "address",
              "name": "attester",
              "type": "address"
            },
            {
              "internalType": "uint256",
              "name": "amount",
              "type": "uint256"
            },
            {
              "internalType": "uint256",
              "name": "timestamp",
              "type": "uint256"
            }
          ],
          "internalType": "struct CredTrustRegistry.Attestation[]",
          "name": "",
          "type": "tuple[]"
        }
      ],
      "stateMutability": "view",
      "type": "function"
    },
    {
      "inputs": [
        {
          "internalType": "address",
          "name": "user",
          "type": "address"
        }
      ],
      "name": "getScore",
      "outputs": [
        {
          "internalType": "uint256",
          "name": "",
          "type": "uint256"
        }
      ],
      "stateMutability": "view",
      "type": "function"
    },
    {
      "inputs": [
        {
          "internalType": "address",
          "name": "staker",
          "type": "address"
        }
      ],
      "name": "getStakedAmount",
      "outputs": [
        {
          "internalType": "uint256",
          "name": "",
          "type": "uint256"
        }
      ],
      "stateMutability": "view",
      "type": "function"
    },
    {
      "inputs": [
        {
          "internalType": "address",
          "name": "",
          "type": "address"
        }
      ],
      "name": "scores",
      "outputs": [
        {
          "internalType": "uint256",
          "name": "score",
          "type": "uint256"
        },
        {
          "internalType": "uint256",
          "name": "lastUpdated",
          "type": "uint256"
        },
        {
          "internalType": "string",
          "name": "ipfsHash",
          "type": "string"
        }
      ],
      "stateMutability": "view",
      "type": "function"
    },
    {
      "inputs": [
        {
          "internalType": "address",
          "name": "user",
          "type": "address"
        },
        {
          "internalType": "uint256",
          "name": "amount",
          "type": "uint256"
        }
      ],
      "name": "stakeForUser",
      "outputs": [],
      "stateMutability": "nonpayable",
      "type": "function"
    },
    {
      "inputs": [
        {
          "internalType": "address",
          "name": "",
          "type": "address"
        }
      ],
      "name": "stakedAmounts",
      "outputs": [
        {
          "internalType": "uint256",
          "name": "",
          "type": "uint256"
        }
      ],
      "stateMutability": "view",
      "type": "function"
    },
    {
      "inputs": [],
      "name": "trustToken",
      "outputs": [
        {
          "internalType": "contract TrustToken",
          "name": "",
          "type": "address"
        }
      ],
      "stateMutability": "view",
      "type": "function"
    },
    {
      "inputs": [
        {
          "internalType": "uint256",
          "name": "amount",
          "type": "uint256"
        }
      ],
      "name": "unstake",
      "outputs": [],
      "stateMutability": "nonpayable",
      "type": "function"
    },
    {
      "inputs": [
        {
          "internalType": "address",
          "name": "user",
          "type": "address"
        },
        {
          "components": [
            {
              "internalType": "uint256",
              "name": "aaveRepayments",
              "type": "uint256"
            },
            {
              "internalType": "uint256",
              "name": "uniswapLpDuration",
              "type": "uint256"
            },
            {
              "internalType": "uint256",
              "name": "stakedAmount",
              "type": "uint256"
            },
            {
              "internalType": "uint256",
              "name": "transactionVolume",
              "type": "uint256"
            },
            {
              "internalType": "uint256",
              "name": "identityVerified",
              "type": "uint256"
            }
          ],
          "internalType": "struct ScoreCalculator.ScoreFactors",
          "name": "factors",
          "type": "tuple"
        },
        {
          "internalType": "string",
          "name": "ipfsHash",
          "type": "string"
        }
      ],
      "name": "updateScore",
      "outputs": [],
      "stateMutability": "nonpayable",
      "type": "function"
    }
  ],
  "bytecode": "0x60806040523480156200001157600080fd5b506040516200193a3803806200193a8339818101604052810190620000379190620000e8565b806000806101000a81548173ffffffffffffffffffffffffffffffffffffffff021916908373ffffffffffffffffffffffffffffffffffffffff160217905550506200011a565b600080fd5b600073ffffffffffffffffffffffffffffffffffffffff82169050919050565b6000620000b08262000083565b9050919050565b620000c281620000a3565b8114620000ce57600080fd5b50565b600081519050620000e281620000b7565b92915050565b6000602082840312156200010157620001006200007e565b5b60006200011184828501620000d1565b91505092915050565b611810806200012a6000396000f3fe608060405234801561001057600080fd5b50600436106100a95760003560e01c806376dd110f1161007157806376dd110f14610176578063aba6466c146101a8578063c657c6a5146101d8578063d13deb2f1461020a578063d47875d014610228578063fd79c6a214610258576100a9565b806310c1c103146100ae57806313d378e0146100de578063265555a5146100fa5780632e17de781461012a5780634da6a55614610146575b600080fd5b6100c860048036038101906100c39190610c51565b610274565b6040516100d59190610c97565b60405180910390f35b6100f860048036038101906100f39190610eb5565b61028c565b005b610114600480360381019061010f9190610f24565b6103bf565b6040516101219190610c97565b60405180910390f35b610144600480360381019061013f9190610f51565b6104e7565b005b610160600480360381019061015b9190610c51565b6106af565b60405161016d9190610c97565b60405180910390f35b610190600480360381019061018b9190610c51565b6106f8565b60405161019f93929190610ffd565b60405180910390f35b6101c260048036038101906101bd9190610c51565b6107aa565b6040516101cf919061114a565b60405180910390f35b6101f260048036038101906101ed919061116c565b6108b2565b604051610201939291906111bb565b60405180910390f35b610212610919565b60405161021f9190611251565b60405180910390f35b610242600480360381019061023d9190610c51565b61093d565b60405161024f9190610c97565b60405180910390f35b610272600480360381019061026d919061116c565b610989565b005b60036020528060005260406000206000915090505481565b600360008473ffffffffffffffffffffffffffffffffffffffff1673ffffffffffffffffffffffffffffffffffffffff1681526020019081526020016000205482604001818152505060006102e0836103bf565b9050604051806060016040528082815260200142815260200183815250600160008673ffffffffffffffffffffffffffffffffffffffff1673ffffffffffffffffffffffffffffffffffffffff16815260200190815260200160002060008201518160000155602082015181600101556040820151816002019081610365919061146e565b509050508373ffffffffffffffffffffffffffffffffffffffff167f2b535fbf4d2281f734a35408583a14d4e2b28653b00d761613e8758399dd6e6d82846040516103b1929190611540565b60405180910390a250505050565b60008060009050606461015e84600001516103da919061159f565b6103e49190611610565b816103ef9190611641565b9050606460fa8460200151610404919061159f565b61040e9190611610565b816104199190611641565b90506000683635c9adc5dea0000060648560400151610438919061159f565b6104429190611610565b9050606481111561045257606490505b606460fa82610461919061159f565b61046b9190611610565b826104769190611641565b9150606480856060015161048a919061159f565b6104949190611610565b8261049f9190611641565b91506064603285608001516104b4919061159f565b6104be9190611610565b826104c99190611641565b915061038482116104da57816104de565b6103845b92505050919050565b80600360003373ffffffffffffffffffffffffffffffffffffffff1673ffffffffffffffffffffffffffffffffffffffff168152602001908152602001600020541015610569576040517f08c379a0000000000000000000000000000000000000000000000000000000008152600401610560906116c1565b60405180910390fd5b80600360003373ffffffffffffffffffffffffffffffffffffffff1673ffffffffffffffffffffffffffffffffffffffff16815260200190815260200160002060008282546105b891906116e1565b9250508190555060008054906101000a900473ffffffffffffffffffffffffffffffffffffffff1673ffffffffffffffffffffffffffffffffffffffff1663a9059cbb33836040518363ffffffff1660e01b815260040161061a929190611715565b6020604051808303816000875af1158015610639573d6000803e3d6000fd5b505050506040513d601f19601f8201168201806040525081019061065d9190611776565b503373ffffffffffffffffffffffffffffffffffffffff167f0f5bb82176feb1b5e747e28471aa92156a04d9f3ab9f45f28e2d704232b93f75826040516106a49190610c97565b60405180910390a250565b6000600360008373ffffffffffffffffffffffffffffffffffffffff1673ffffffffffffffffffffffffffffffffffffffff168152602001908152602001600020549050919050565b60016020528060005260406000206000915090508060000154908060010154908060020180546107279061129b565b80601f01602080910402602001604051908101604052809291908181526020018280546107539061129b565b80156107a05780601f10610775576101008083540402835291602001916107a0565b820191906000526020600020905b81548152906001019060200180831161078357829003601f168201915b5050505050905083565b6060600260008373ffffffffffffffffffffffffffffffffffffffff1673ffffffffffffffffffffffffffffffffffffffff168152602001908152602001600020805480602002602001604051908101604052809291908181526020016000905b828210156108a757838290600052602060002090600302016040518060600160405290816000820160009054906101000a900473ffffffffffffffffffffffffffffffffffffffff1673ffffffffffffffffffffffffffffffffffffffff1673ffffffffffffffffffffffffffffffffffffffff168152602001600182015481526020016002820154815250508152602001906001019061080b565b505050509050919050565b600260205281600052604060002081815481106108ce57600080fd5b9060005260206000209060030201600091509150508060000160009054906101000a900473ffffffffffffffffffffffffffffffffffffffff16908060010154908060020154905083565b60008054906101000a900473ffffffffffffffffffffffffffffffffffffffff1681565b6000600160008373ffffffffffffffffffffffffffffffffffffffff1673ffffffffffffffffffffffffffffffffffffffff168152602001908152602001600020600001549050919050565b60008054906101000a900473ffffffffffffffffffffffffffffffffffffffff1673ffffffffffffffffffffffffffffffffffffffff166323b872dd3330846040518463ffffffff1660e01b81526004016109e6939291906117a3565b6020604051808303816000875af1158015610a05573d6000803e3d6000fd5b505050506040513d601f19601f82011682018060405250810190610a299190611776565b5080600360003373ffffffffffffffffffffffffffffffffffffffff1673ffffffffffffffffffffffffffffffffffffffff1681526020019081526020016000206000828254610a799190611641565b92505081905550600260008373ffffffffffffffffffffffffffffffffffffffff1673ffffffffffffffffffffffffffffffffffffffff16815260200190815260200160002060405180606001604052803373ffffffffffffffffffffffffffffffffffffffff16815260200183815260200142815250908060018154018082558091505060019003906000526020600020906003020160009091909190915060008201518160000160006101000a81548173ffffffffffffffffffffffffffffffffffffffff021916908373ffffffffffffffffffffffffffffffffffffffff160217905550602082015181600101556040820151816002015550503373ffffffffffffffffffffffffffffffffffffffff168273ffffffffffffffffffffffffffffffffffffffff167f2680c0e9ed33c1a20ad46318cd3d5d435f27264df4db4ea9b7b3499211c9626d83604051610bd39190610c97565b60405180910390a35050565b6000604051905090565b600080fd5b600080fd5b600073ffffffffffffffffffffffffffffffffffffffff82169050919050565b6000610c1e82610bf3565b9050919050565b610c2e81610c13565b8114610c3957600080fd5b50565b600081359050610c4b81610c25565b92915050565b600060208284031215610c6757610c66610be9565b5b6000610c7584828501610c3c565b91505092915050565b6000819050919050565b610c9181610c7e565b82525050565b6000602082019050610cac6000830184610c88565b92915050565b600080fd5b6000601f19601f8301169050919050565b7f4e487b7100000000000000000000000000000000000000000000000000000000600052604160045260246000fd5b610d0082610cb7565b810181811067ffffffffffffffff82111715610d1f57610d1e610cc8565b5b80604052505050565b6000610d32610bdf565b9050610d3e8282610cf7565b919050565b610d4c81610c7e565b8114610d5757600080fd5b50565b600081359050610d6981610d43565b92915050565b600060a08284031215610d8557610d84610cb2565b5b610d8f60a0610d28565b90506000610d9f84828501610d5a565b6000830152506020610db384828501610d5a565b6020830152506040610dc784828501610d5a565b6040830152506060610ddb84828501610d5a565b6060830152506080610def84828501610d5a565b60808301525092915050565b600080fd5b600080fd5b600067ffffffffffffffff821115610e2057610e1f610cc8565b5b610e2982610cb7565b9050602081019050919050565b82818337600083830152505050565b6000610e58610e5384610e05565b610d28565b905082815260208101848484011115610e7457610e73610e00565b5b610e7f848285610e36565b509392505050565b600082601f830112610e9c57610e9b610dfb565b5b8135610eac848260208601610e45565b91505092915050565b600080600060e08486031215610ece57610ecd610be9565b5b6000610edc86828701610c3c565b9350506020610eed86828701610d6f565b92505060c084013567ffffffffffffffff811115610f0e57610f0d610bee565b5b610f1a86828701610e87565b9150509250925092565b600060a08284031215610f3a57610f39610be9565b5b6000610f4884828501610d6f565b91505092915050565b600060208284031215610f6757610f66610be9565b5b6000610f7584828501610d5a565b91505092915050565b600081519050919050565b600082825260208201905092915050565b60005b83811015610fb8578082015181840152602081019050610f9d565b60008484015250505050565b6000610fcf82610f7e565b610fd98185610f89565b9350610fe9818560208601610f9a565b610ff281610cb7565b840191505092915050565b60006060820190506110126000830186610c88565b61101f6020830185610c88565b81810360408301526110318184610fc4565b9050949350505050565b600081519050919050565b600082825260208201905092915050565b6000819050602082019050919050565b61107081610c13565b82525050565b61107f81610c7e565b82525050565b60608201600082015161109b6000850182611067565b5060208201516110ae6020850182611076565b5060408201516110c16040850182611076565b50505050565b60006110d38383611085565b60608301905092915050565b6000602082019050919050565b60006110f78261103b565b6111018185611046565b935061110c83611057565b8060005b8381101561113d57815161112488826110c7565b975061112f836110df565b925050600181019050611110565b5085935050505092915050565b6000602082019050818103600083015261116481846110ec565b905092915050565b6000806040838503121561118357611182610be9565b5b600061119185828601610c3c565b92505060206111a285828601610d5a565b9150509250929050565b6111b581610c13565b82525050565b60006060820190506111d060008301866111ac565b6111dd6020830185610c88565b6111ea6040830184610c88565b949350505050565b6000819050919050565b600061121761121261120d84610bf3565b6111f2565b610bf3565b9050919050565b6000611229826111fc565b9050919050565b600061123b8261121e565b9050919050565b61124b81611230565b82525050565b60006020820190506112666000830184611242565b92915050565b7f4e487b7100000000000000000000000000000000000000000000000000000000600052602260045260246000fd5b600060028204905060018216806112b357607f821691505b6020821081036112c6576112c561126c565b5b50919050565b60008190508160005260206000209050919050565b60006020601f8301049050919050565b600082821b905092915050565b60006008830261132e7fffffffffffffffffffffffffffffffffffffffffffffffffffffffffffffffff826112f1565b61133886836112f1565b95508019841693508086168417925050509392505050565b600061136b61136661136184610c7e565b6111f2565b610c7e565b9050919050565b6000819050919050565b61138583611350565b61139961139182611372565b8484546112fe565b825550505050565b600090565b6113ae6113a1565b6113b981848461137c565b505050565b5b818110156113dd576113d26000826113a6565b6001810190506113bf565b5050565b601f821115611422576113f3816112cc565b6113fc846112e1565b8101602085101561140b578190505b61141f611417856112e1565b8301826113be565b50505b505050565b600082821c905092915050565b600061144560001984600802611427565b1980831691505092915050565b600061145e8383611434565b9150826002028217905092915050565b61147782610f7e565b67ffffffffffffffff8111156114905761148f610cc8565b5b61149a825461129b565b6114a58282856113e1565b600060209050601f8311600181146114d857600084156114c6578287015190505b6114d08582611452565b865550611538565b601f1984166114e6866112cc565b60005b8281101561150e578489015182556001820191506020850194506020810190506114e9565b8683101561152b5784890151611527601f891682611434565b8355505b6001600288020188555050505b505050505050565b60006040820190506115556000830185610c88565b81810360208301526115678184610fc4565b90509392505050565b7f4e487b7100000000000000000000000000000000000000000000000000000000600052601160045260246000fd5b60006115aa82610c7e565b91506115b583610c7e565b92508282026115c381610c7e565b915082820484148315176115da576115d9611570565b5b5092915050565b7f4e487b7100000000000000000000000000000000000000000000000000000000600052601260045260246000fd5b600061161b82610c7e565b915061162683610c7e565b925082611636576116356115e1565b5b828204905092915050565b600061164c82610c7e565b915061165783610c7e565b925082820190508082111561166f5761166e611570565b5b92915050565b7f496e73756666696369656e74207374616b650000000000000000000000000000600082015250565b60006116ab601283610f89565b91506116b682611675565b602082019050919050565b600060208201905081810360008301526116da8161169e565b9050919050565b60006116ec82610c7e565b91506116f783610c7e565b925082820390508181111561170f5761170e611570565b5b92915050565b600060408201905061172a60008301856111ac565b6117376020830184610c88565b9392505050565b60008115159050919050565b6117538161173e565b811461175e57600080fd5b50565b6000815190506117708161174a565b92915050565b60006020828403121561178c5761178b610be9565b5b600061179a84828501611761565b91505092915050565b60006060820190506117b860008301866111ac565b6117c560208301856111ac565b6117d26040830184610c88565b94935050505056fea2646970667358221220ed806952cbd14572d46a308309f8b4c7516040fdcd8e882d232c94ce9ce3995464736f6c63430008140033",
  "linkReferences": {},
  "deployedLinkReferences": {}
}