{
  "_format": "hh-sol-artifact-1",
  "contractName": "IdentityVerificationMock",
  "sourceName": "contracts/IdentityVerificationMock.sol",
  "abi": [
    {
      "inputs": [
        {
          "internalType": "address",
          "name": "user",
          "type": "address"
        }
      ],
      "name": "isVerified",
      "outputs": [
        {
          "internalType": "bool",
          "name": "",
          "type": "bool"
        }
      ],
      "stateMutability": "view",
      "type": "function"
    },
    {
      "inputs": [
        {
          "internalType": "address",
          "name": "user",
          "type": "address"
        },
        {
          "internalType": "bool",
          "name": "status",
          "type": "bool"
        }
      ],
      "name": "setVerified",
      "outputs": [],
      "stateMutability": "nonpayable",
      "type": "function"
    }
  ],
  "bytecode": "0x608060405234801561001057600080fd5b5061029e806100206000396000f3fe608060405234801561001057600080fd5b50600436106100365760003560e01c80639cf5c6131461003b578063b9209e3314610057575b600080fd5b610055600480360381019061005091906101d1565b610087565b005b610071600480360381019061006c9190610211565b6100e1565b60405161007e919061024d565b60405180910390f35b806000808473ffffffffffffffffffffffffffffffffffffffff1673ffffffffffffffffffffffffffffffffffffffff16815260200190815260200160002060006101000a81548160ff0219169083151502179055505050565b60008060008373ffffffffffffffffffffffffffffffffffffffff1673ffffffffffffffffffffffffffffffffffffffff16815260200190815260200160002060009054906101000a900460ff169050919050565b600080fd5b600073ffffffffffffffffffffffffffffffffffffffff82169050919050565b60006101668261013b565b9050919050565b6101768161015b565b811461018157600080fd5b50565b6000813590506101938161016d565b92915050565b60008115159050919050565b6101ae81610199565b81146101b957600080fd5b50565b6000813590506101cb816101a5565b92915050565b600080604083850312156101e8576101e7610136565b5b60006101f685828601610184565b9250506020610207858286016101bc565b9150509250929050565b60006020828403121561022757610226610136565b5b600061023584828501610184565b91505092915050565b61024781610199565b82525050565b6000602082019050610262600083018461023e565b9291505056fea26469706673582212205b269d04af09aee100d4091a0df2b7f1c451f59e6d6333d81df8305ebfcf493e64736f6c63430008140033",
  "linkReferences": {},
  "deployedLinkReferences": {}
}