{
  "_format": "hh-sol-artifact-1",
  "contractName": "LoanContract",
  "sourceName": "contracts/LoanContract.sol",
  "abi": [
    {
      "inputs": [
        {
          "internalType": "address",
          "name": "_registryAddress",
          "type": "address"
        }
      ],
      "stateMutability": "nonpayable",
      "type": "constructor"
    },
    {
      "anonymous": false,
      "inputs": [
        {
          "indexed": true,
          "internalType": "address",
          "name": "borrower",
          "type": "address"
        },
        {
          "indexed": false,
          "internalType": "uint256",
          "name": "productId",
          "type": "uint256"
        }
      ],
      "name": "LoanApproved",
      "type": "event"
    },
    {
      "inputs": [],
      "name": "MIN_SCORE",
      "outputs": [
        {
          "internalType": "uint256",
          "name": "",
          "type": "uint256"
        }
      ],
      "stateMutability": "view",
      "type": "function"
    },
    {
      "inputs": [
        {
          "internalType": "uint256",
          "name": "amount",
          "type": "uint256"
        },
        {
          "internalType": "uint256",
          "name": "interestRate",
          "type": "uint256"
        },
        {
          "internalType": "uint256",
          "name": "duration",
          "type": "uint256"
        },
        {
          "internalType": "bool",
          "name": "collateralized",
          "type": "bool"
        }
      ],
      "name": "addLoanProduct",
      "outputs": [],
      "stateMutability": "nonpayable",
      "type": "function"
    },
    {
      "inputs": [
        {
          "internalType": "address",
          "name": "",
          "type": "address"
        },
        {
          "internalType": "uint256",
          "name": "",
          "type": "uint256"
        }
      ],
      "name": "appliedLoans",
      "outputs": [
        {
          "internalType": "uint256",
          "name": "",
          "type": "uint256"
        }
      ],
      "stateMutability": "view",
      "type": "function"
    },
    {
      "inputs": [
        {
          "internalType": "uint256",
          "name": "productId",
          "type": "uint256"
        }
      ],
      "name": "applyForLoan",
      "outputs": [],
      "stateMutability": "nonpayable",
      "type": "function"
    },
    {
      "inputs": [
        {
          "internalType": "address",
          "name": "borrower",
          "type": "address"
        }
      ],
      "name": "getAppliedLoans",
      "outputs": [
        {
          "internalType": "uint256[]",
          "name": "",
          "type": "uint256[]"
        }
      ],
      "stateMutability": "view",
      "type": "function"
    },
    {
      "inputs": [
        {
          "internalType": "uint256",
          "name": "index",
          "type": "uint256"
        }
      ],
      "name": "getLoanProduct",
      "outputs": [
        {
          "components": [
            {
              "internalType": "uint256",
              "name": "amount",
              "type": "uint256"
            },
            {
              "internalType": "uint256",
              "name": "interestRate",
              "type": "uint256"
            },
            {
              "internalType": "uint256",
              "name": "duration",
              "type": "uint256"
            },
            {
              "internalType": "bool",
              "name": "collateralized",
              "type": "bool"
            }
          ],
          "internalType": "struct LoanContract.Loan",
          "name": "",
          "type": "tuple"
        }
      ],
      "stateMutability": "view",
      "type": "function"
    },
    {
      "inputs": [],
      "name": "getLoanProductCount",
      "outputs": [
        {
          "internalType": "uint256",
          "name": "",
          "type": "uint256"
        }
      ],
      "stateMutability": "view",
      "type": "function"
    },
    {
      "inputs": [
        {
          "internalType": "address",
          "name": "",
          "type": "address"
        },
        {
          "internalType": "uint256",
          "name": "",
          "type": "uint256"
        }
      ],
      "name": "hasApplied",
      "outputs": [
        {
          "internalType": "bool",
          "name": "",
          "type": "bool"
        }
      ],
      "stateMutability": "view",
      "type": "function"
    },
    {
      "inputs": [
        {
          "internalType": "uint256",
          "name": "",
          "type": "uint256"
        }
      ],
      "name": "loanProducts",
      "outputs": [
        {
          "internalType": "uint256",
          "name": "amount",
          "type": "uint256"
        },
        {
          "internalType": "uint256",
          "name": "interestRate",
          "type": "uint256"
        },
        {
          "internalType": "uint256",
          "name": "duration",
          "type": "uint256"
        },
        {
          "internalType": "bool",
          "name": "collateralized",
          "type": "bool"
        }
      ],
      "stateMutability": "view",
      "type": "function"
    },
    {
      "inputs": [],
      "name": "registry",
      "outputs": [
        {
          "internalType": "contract CredTrustRegistry",
          "name": "",
          "type": "address"
        }
      ],
      "stateMutability": "view",
      "type": "function"
    }
  ],
  "bytecode": "0x60806040523480156200001157600080fd5b506040516200128b3803806200128b833981810160405281019062000037919062000220565b806000806101000a81548173ffffffffffffffffffffffffffffffffffffffff021916908373ffffffffffffffffffffffffffffffffffffffff16021790555060016040518060800160405280670de0b6b3a764000081526020016101f4815260200162278d00815260200160001515815250908060018154018082558091505060019003906000526020600020906004020160009091909190915060008201518160000155602082015181600101556040820151816002015560608201518160030160006101000a81548160ff021916908315150217905550505060016040518060800160405280674563918244f40000815260200161012c81526020016276a700815260200160011515815250908060018154018082558091505060019003906000526020600020906004020160009091909190915060008201518160000155602082015181600101556040820151816002015560608201518160030160006101000a81548160ff02191690831515021790555050505062000252565b600080fd5b600073ffffffffffffffffffffffffffffffffffffffff82169050919050565b6000620001e882620001bb565b9050919050565b620001fa81620001db565b81146200020657600080fd5b50565b6000815190506200021a81620001ef565b92915050565b600060208284031215620002395762000238620001b6565b5b6000620002498482850162000209565b91505092915050565b61102980620002626000396000f3fe608060405234801561001057600080fd5b506004361061009e5760003560e01c80637b103999116100665780637b10399914610159578063a85c68c414610177578063ec7d4fbf146101a7578063f6bc77fc146101d7578063ffd3f8621461020a5761009e565b8063128c5c1b146100a357806321363f7e146100d35780632bc9cf5b146100ef578063404d47ab1461011f57806340b892701461013b575b600080fd5b6100bd60048036038101906100b891906108fc565b610228565b6040516100ca91906109a8565b60405180910390f35b6100ed60048036038101906100e891906109ef565b6102e4565b005b61010960048036038101906101049190610ab4565b610378565b6040516101169190610b03565b60405180910390f35b610139600480360381019061013491906108fc565b6103a7565b005b61014361074b565b6040516101509190610b2d565b60405180910390f35b610161610751565b60405161016e9190610ba7565b60405180910390f35b610191600480360381019061018c9190610ab4565b610775565b60405161019e9190610b2d565b60405180910390f35b6101c160048036038101906101bc9190610bc2565b6107a6565b6040516101ce9190610c9e565b60405180910390f35b6101f160048036038101906101ec91906108fc565b61083d565b6040516102019493929190610cc0565b60405180910390f35b61021261088a565b60405161021f9190610b2d565b60405180910390f35b610230610897565b6001805490508210610277576040517f08c379a000000000000000000000000000000000000000000000000000000000815260040161026e90610d62565b60405180910390fd5b6001828154811061028b5761028a610d82565b5b90600052602060002090600402016040518060800160405290816000820154815260200160018201548152602001600282015481526020016003820160009054906101000a900460ff1615151515815250509050919050565b60016040518060800160405280868152602001858152602001848152602001831515815250908060018154018082558091505060019003906000526020600020906004020160009091909190915060008201518160000155602082015181600101556040820151816002015560608201518160030160006101000a81548160ff021916908315150217905550505050505050565b60036020528160005260406000206020528060005260406000206000915091509054906101000a900460ff1681565b60018054905081106103ee576040517f08c379a00000000000000000000000000000000000000000000000000000000081526004016103e590610dfd565b60405180910390fd5b600360003373ffffffffffffffffffffffffffffffffffffffff1673ffffffffffffffffffffffffffffffffffffffff168152602001908152602001600020600082815260200190815260200160002060009054906101000a900460ff161561048c576040517f08c379a000000000000000000000000000000000000000000000000000000000815260040161048390610e69565b60405180910390fd5b6000600182815481106104a2576104a1610d82565b5b90600052602060002090600402016040518060800160405290816000820154815260200160018201548152602001600282015481526020016003820160009054906101000a900460ff161515151581525050905060008060009054906101000a900473ffffffffffffffffffffffffffffffffffffffff1673ffffffffffffffffffffffffffffffffffffffff1663d47875d0336040518263ffffffff1660e01b81526004016105529190610e98565b602060405180830381865afa15801561056f573d6000803e3d6000fd5b505050506040513d601f19601f820116820180604052508101906105939190610ec8565b90506102bc8110156105da576040517f08c379a00000000000000000000000000000000000000000000000000000000081526004016105d190610f41565b60405180910390fd5b8160600151610629576102ee811015610628576040517f08c379a000000000000000000000000000000000000000000000000000000000815260040161061f90610fd3565b60405180910390fd5b5b600260003373ffffffffffffffffffffffffffffffffffffffff1673ffffffffffffffffffffffffffffffffffffffff1681526020019081526020016000208390806001815401808255809150506001900390600052602060002001600090919091909150556001600360003373ffffffffffffffffffffffffffffffffffffffff1673ffffffffffffffffffffffffffffffffffffffff168152602001908152602001600020600085815260200190815260200160002060006101000a81548160ff0219169083151502179055503373ffffffffffffffffffffffffffffffffffffffff167f93e6d20b2134c2834b2d150cb5d87de9e77bde683f944766c3c45b793ba8ddad8460405161073e9190610b2d565b60405180910390a2505050565b6102bc81565b60008054906101000a900473ffffffffffffffffffffffffffffffffffffffff1681565b6002602052816000526040600020818154811061079157600080fd5b90600052602060002001600091509150505481565b6060600260008373ffffffffffffffffffffffffffffffffffffffff1673ffffffffffffffffffffffffffffffffffffffff16815260200190815260200160002080548060200260200160405190810160405280929190818152602001828054801561083157602002820191906000526020600020905b81548152602001906001019080831161081d575b50505050509050919050565b6001818154811061084d57600080fd5b90600052602060002090600402016000915090508060000154908060010154908060020154908060030160009054906101000a900460ff16905084565b6000600180549050905090565b60405180608001604052806000815260200160008152602001600081526020016000151581525090565b600080fd5b6000819050919050565b6108d9816108c6565b81146108e457600080fd5b50565b6000813590506108f6816108d0565b92915050565b600060208284031215610912576109116108c1565b5b6000610920848285016108e7565b91505092915050565b610932816108c6565b82525050565b60008115159050919050565b61094d81610938565b82525050565b6080820160008201516109696000850182610929565b50602082015161097c6020850182610929565b50604082015161098f6040850182610929565b5060608201516109a26060850182610944565b50505050565b60006080820190506109bd6000830184610953565b92915050565b6109cc81610938565b81146109d757600080fd5b50565b6000813590506109e9816109c3565b92915050565b60008060008060808587031215610a0957610a086108c1565b5b6000610a17878288016108e7565b9450506020610a28878288016108e7565b9350506040610a39878288016108e7565b9250506060610a4a878288016109da565b91505092959194509250565b600073ffffffffffffffffffffffffffffffffffffffff82169050919050565b6000610a8182610a56565b9050919050565b610a9181610a76565b8114610a9c57600080fd5b50565b600081359050610aae81610a88565b92915050565b60008060408385031215610acb57610aca6108c1565b5b6000610ad985828601610a9f565b9250506020610aea858286016108e7565b9150509250929050565b610afd81610938565b82525050565b6000602082019050610b186000830184610af4565b92915050565b610b27816108c6565b82525050565b6000602082019050610b426000830184610b1e565b92915050565b6000819050919050565b6000610b6d610b68610b6384610a56565b610b48565b610a56565b9050919050565b6000610b7f82610b52565b9050919050565b6000610b9182610b74565b9050919050565b610ba181610b86565b82525050565b6000602082019050610bbc6000830184610b98565b92915050565b600060208284031215610bd857610bd76108c1565b5b6000610be684828501610a9f565b91505092915050565b600081519050919050565b600082825260208201905092915050565b6000819050602082019050919050565b6000610c278383610929565b60208301905092915050565b6000602082019050919050565b6000610c4b82610bef565b610c558185610bfa565b9350610c6083610c0b565b8060005b83811015610c91578151610c788882610c1b565b9750610c8383610c33565b925050600181019050610c64565b5085935050505092915050565b60006020820190508181036000830152610cb88184610c40565b905092915050565b6000608082019050610cd56000830187610b1e565b610ce26020830186610b1e565b610cef6040830185610b1e565b610cfc6060830184610af4565b95945050505050565b600082825260208201905092915050565b7f496e76616c69642070726f6475637420696e6465780000000000000000000000600082015250565b6000610d4c601583610d05565b9150610d5782610d16565b602082019050919050565b60006020820190508181036000830152610d7b81610d3f565b9050919050565b7f4e487b7100000000000000000000000000000000000000000000000000000000600052603260045260246000fd5b7f496e76616c69642070726f647563740000000000000000000000000000000000600082015250565b6000610de7600f83610d05565b9150610df282610db1565b602082019050919050565b60006020820190508181036000830152610e1681610dda565b9050919050565b7f416c7265616479206170706c69656420666f722074686973206c6f616e000000600082015250565b6000610e53601d83610d05565b9150610e5e82610e1d565b602082019050919050565b60006020820190508181036000830152610e8281610e46565b9050919050565b610e9281610a76565b82525050565b6000602082019050610ead6000830184610e89565b92915050565b600081519050610ec2816108d0565b92915050565b600060208284031215610ede57610edd6108c1565b5b6000610eec84828501610eb3565b91505092915050565b7f4372656469742073636f726520746f6f206c6f77000000000000000000000000600082015250565b6000610f2b601483610d05565b9150610f3682610ef5565b602082019050919050565b60006020820190508181036000830152610f5a81610f1e565b9050919050565b7f4869676865722073636f726520726571756972656420666f7220756e636f6c6c60008201527f61746572616c697a656400000000000000000000000000000000000000000000602082015250565b6000610fbd602a83610d05565b9150610fc882610f61565b604082019050919050565b60006020820190508181036000830152610fec81610fb0565b905091905056fea264697066735822122060b15aef41bec48a1f6f51e257eb34e1a4f179165f0282393da9b8e9e4eeff4564736f6c63430008140033",
  "linkReferences": {},
  "deployedLinkReferences": {}
}