{
  "_format": "hh-sol-artifact-1",
  "contractName": "LoanContract",
  "sourceName": "contracts/LoanContract.sol",
  "abi": [
    {
      "inputs": [
        {
          "internalType": "address",
          "name": "_registryAddress",
          "type": "address"
        }
      ],
      "stateMutability": "nonpayable",
      "type": "constructor"
    },
    {
      "anonymous": false,
      "inputs": [
        {
          "indexed": true,
          "internalType": "address",
          "name": "borrower",
          "type": "address"
        },
        {
          "indexed": false,
          "internalType": "uint256",
          "name": "productId",
          "type": "uint256"
        }
      ],
      "name": "LoanApproved",
      "type": "event"
    },
    {
      "inputs": [],
      "name": "MIN_SCORE",
      "outputs": [
        {
          "internalType": "uint256",
          "name": "",
          "type": "uint256"
        }
      ],
      "stateMutability": "view",
      "type": "function"
    },
    {
      "inputs": [
        {
          "internalType": "uint256",
          "name": "amount",
          "type": "uint256"
        },
        {
          "internalType": "uint256",
          "name": "interestRate",
          "type": "uint256"
        },
        {
          "internalType": "uint256",
          "name": "duration",
          "type": "uint256"
        },
        {
          "internalType": "bool",
          "name": "collateralized",
          "type": "bool"
        }
      ],
      "name": "addLoanProduct",
      "outputs": [],
      "stateMutability": "nonpayable",
      "type": "function"
    },
    {
      "inputs": [
        {
          "internalType": "uint256",
          "name": "productId",
          "type": "uint256"
        }
      ],
      "name": "applyForLoan",
      "outputs": [],
      "stateMutability": "nonpayable",
      "type": "function"
    },
    {
      "inputs": [],
      "name": "getLoanProductCount",
      "outputs": [
        {
          "internalType": "uint256",
          "name": "",
          "type": "uint256"
        }
      ],
      "stateMutability": "view",
      "type": "function"
    },
    {
      "inputs": [
        {
          "internalType": "uint256",
          "name": "",
          "type": "uint256"
        }
      ],
      "name": "loanProducts",
      "outputs": [
        {
          "internalType": "uint256",
          "name": "amount",
          "type": "uint256"
        },
        {
          "internalType": "uint256",
          "name": "interestRate",
          "type": "uint256"
        },
        {
          "internalType": "uint256",
          "name": "duration",
          "type": "uint256"
        },
        {
          "internalType": "bool",
          "name": "collateralized",
          "type": "bool"
        }
      ],
      "stateMutability": "view",
      "type": "function"
    },
    {
      "inputs": [],
      "name": "registry",
      "outputs": [
        {
          "internalType": "contract CredTrustRegistry",
          "name": "",
          "type": "address"
        }
      ],
      "stateMutability": "view",
      "type": "function"
    }
  ],
  "bytecode": "0x608060405234801561001057600080fd5b50604051610b47380380610b4783398181016040528101906100329190610213565b806000806101000a81548173ffffffffffffffffffffffffffffffffffffffff021916908373ffffffffffffffffffffffffffffffffffffffff16021790555060016040518060800160405280670de0b6b3a764000081526020016101f4815260200162278d00815260200160001515815250908060018154018082558091505060019003906000526020600020906004020160009091909190915060008201518160000155602082015181600101556040820151816002015560608201518160030160006101000a81548160ff021916908315150217905550505060016040518060800160405280674563918244f40000815260200161012c81526020016276a700815260200160011515815250908060018154018082558091505060019003906000526020600020906004020160009091909190915060008201518160000155602082015181600101556040820151816002015560608201518160030160006101000a81548160ff021916908315150217905550505050610240565b600080fd5b600073ffffffffffffffffffffffffffffffffffffffff82169050919050565b60006101e0826101b5565b9050919050565b6101f0816101d5565b81146101fb57600080fd5b50565b60008151905061020d816101e7565b92915050565b600060208284031215610229576102286101b0565b5b6000610237848285016101fe565b91505092915050565b6108f88061024f6000396000f3fe608060405234801561001057600080fd5b50600436106100625760003560e01c806321363f7e14610067578063404d47ab1461008357806340b892701461009f5780637b103999146100bd578063f6bc77fc146100db578063ffd3f8621461010e575b600080fd5b610081600480360381019061007c91906104ee565b61012c565b005b61009d60048036038101906100989190610555565b6101c0565b005b6100a76103f7565b6040516100b49190610591565b60405180910390f35b6100c56103fd565b6040516100d2919061062b565b60405180910390f35b6100f560048036038101906100f09190610555565b610421565b6040516101059493929190610655565b60405180910390f35b61011661046e565b6040516101239190610591565b60405180910390f35b60016040518060800160405280868152602001858152602001848152602001831515815250908060018154018082558091505060019003906000526020600020906004020160009091909190915060008201518160000155602082015181600101556040820151816002015560608201518160030160006101000a81548160ff021916908315150217905550505050505050565b6001805490508110610207576040517f08c379a00000000000000000000000000000000000000000000000000000000081526004016101fe906106f7565b60405180910390fd5b60006001828154811061021d5761021c610717565b5b90600052602060002090600402016040518060800160405290816000820154815260200160018201548152602001600282015481526020016003820160009054906101000a900460ff161515151581525050905060008060009054906101000a900473ffffffffffffffffffffffffffffffffffffffff1673ffffffffffffffffffffffffffffffffffffffff1663d47875d0336040518263ffffffff1660e01b81526004016102cd9190610767565b602060405180830381865afa1580156102ea573d6000803e3d6000fd5b505050506040513d601f19601f8201168201806040525081019061030e9190610797565b90506102bc811015610355576040517f08c379a000000000000000000000000000000000000000000000000000000000815260040161034c90610810565b60405180910390fd5b81606001516103a4576102ee8110156103a3576040517f08c379a000000000000000000000000000000000000000000000000000000000815260040161039a906108a2565b60405180910390fd5b5b3373ffffffffffffffffffffffffffffffffffffffff167f93e6d20b2134c2834b2d150cb5d87de9e77bde683f944766c3c45b793ba8ddad846040516103ea9190610591565b60405180910390a2505050565b6102bc81565b60008054906101000a900473ffffffffffffffffffffffffffffffffffffffff1681565b6001818154811061043157600080fd5b90600052602060002090600402016000915090508060000154908060010154908060020154908060030160009054906101000a900460ff16905084565b6000600180549050905090565b600080fd5b6000819050919050565b61049381610480565b811461049e57600080fd5b50565b6000813590506104b08161048a565b92915050565b60008115159050919050565b6104cb816104b6565b81146104d657600080fd5b50565b6000813590506104e8816104c2565b92915050565b600080600080608085870312156105085761050761047b565b5b6000610516878288016104a1565b9450506020610527878288016104a1565b9350506040610538878288016104a1565b9250506060610549878288016104d9565b91505092959194509250565b60006020828403121561056b5761056a61047b565b5b6000610579848285016104a1565b91505092915050565b61058b81610480565b82525050565b60006020820190506105a66000830184610582565b92915050565b600073ffffffffffffffffffffffffffffffffffffffff82169050919050565b6000819050919050565b60006105f16105ec6105e7846105ac565b6105cc565b6105ac565b9050919050565b6000610603826105d6565b9050919050565b6000610615826105f8565b9050919050565b6106258161060a565b82525050565b6000602082019050610640600083018461061c565b92915050565b61064f816104b6565b82525050565b600060808201905061066a6000830187610582565b6106776020830186610582565b6106846040830185610582565b6106916060830184610646565b95945050505050565b600082825260208201905092915050565b7f496e76616c69642070726f647563740000000000000000000000000000000000600082015250565b60006106e1600f8361069a565b91506106ec826106ab565b602082019050919050565b60006020820190508181036000830152610710816106d4565b9050919050565b7f4e487b7100000000000000000000000000000000000000000000000000000000600052603260045260246000fd5b6000610751826105ac565b9050919050565b61076181610746565b82525050565b600060208201905061077c6000830184610758565b92915050565b6000815190506107918161048a565b92915050565b6000602082840312156107ad576107ac61047b565b5b60006107bb84828501610782565b91505092915050565b7f4372656469742073636f726520746f6f206c6f77000000000000000000000000600082015250565b60006107fa60148361069a565b9150610805826107c4565b602082019050919050565b60006020820190508181036000830152610829816107ed565b9050919050565b7f4869676865722073636f726520726571756972656420666f7220756e636f6c6c60008201527f61746572616c697a656400000000000000000000000000000000000000000000602082015250565b600061088c602a8361069a565b915061089782610830565b604082019050919050565b600060208201905081810360008301526108bb8161087f565b905091905056fea2646970667358221220e9a937459d7f3175e09f3de7d3a990e495d43f64e9e7d7e795b67d143bb8805164736f6c63430008140033",
  "linkReferences": {},
  "deployedLinkReferences": {}
}