{
  "_format": "hh-sol-artifact-1",
  "contractName": "LoanContract",
  "sourceName": "contracts/LoanContract.sol",
  "abi": [
    {
      "inputs": [
        {
          "internalType": "address",
          "name": "_registryAddress",
          "type": "address"
        }
      ],
      "stateMutability": "nonpayable",
      "type": "constructor"
    },
    {
      "anonymous": false,
      "inputs": [
        {
          "indexed": true,
          "internalType": "address",
          "name": "borrower",
          "type": "address"
        },
        {
          "indexed": false,
          "internalType": "uint256",
          "name": "productId",
          "type": "uint256"
        }
      ],
      "name": "LoanApproved",
      "type": "event"
    },
    {
      "inputs": [],
      "name": "MIN_SCORE",
      "outputs": [
        {
          "internalType": "uint256",
          "name": "",
          "type": "uint256"
        }
      ],
      "stateMutability": "view",
      "type": "function"
    },
    {
      "inputs": [
        {
          "internalType": "uint256",
          "name": "amount",
          "type": "uint256"
        },
        {
          "internalType": "uint256",
          "name": "interestRate",
          "type": "uint256"
        },
        {
          "internalType": "uint256",
          "name": "duration",
          "type": "uint256"
        },
        {
          "internalType": "bool",
          "name": "collateralized",
          "type": "bool"
        }
      ],
      "name": "addLoanProduct",
      "outputs": [],
      "stateMutability": "nonpayable",
      "type": "function"
    },
    {
      "inputs": [
        {
          "internalType": "uint256",
          "name": "productId",
          "type": "uint256"
        }
      ],
      "name": "applyForLoan",
      "outputs": [],
      "stateMutability": "nonpayable",
      "type": "function"
    },
    {
      "inputs": [
        {
          "internalType": "uint256",
          "name": "index",
          "type": "uint256"
        }
      ],
      "name": "getLoanProduct",
      "outputs": [
        {
          "components": [
            {
              "internalType": "uint256",
              "name": "amount",
              "type": "uint256"
            },
            {
              "internalType": "uint256",
              "name": "interestRate",
              "type": "uint256"
            },
            {
              "internalType": "uint256",
              "name": "duration",
              "type": "uint256"
            },
            {
              "internalType": "bool",
              "name": "collateralized",
              "type": "bool"
            }
          ],
          "internalType": "struct LoanContract.Loan",
          "name": "",
          "type": "tuple"
        }
      ],
      "stateMutability": "view",
      "type": "function"
    },
    {
      "inputs": [],
      "name": "getLoanProductCount",
      "outputs": [
        {
          "internalType": "uint256",
          "name": "",
          "type": "uint256"
        }
      ],
      "stateMutability": "view",
      "type": "function"
    },
    {
      "inputs": [
        {
          "internalType": "uint256",
          "name": "",
          "type": "uint256"
        }
      ],
      "name": "loanProducts",
      "outputs": [
        {
          "internalType": "uint256",
          "name": "amount",
          "type": "uint256"
        },
        {
          "internalType": "uint256",
          "name": "interestRate",
          "type": "uint256"
        },
        {
          "internalType": "uint256",
          "name": "duration",
          "type": "uint256"
        },
        {
          "internalType": "bool",
          "name": "collateralized",
          "type": "bool"
        }
      ],
      "stateMutability": "view",
      "type": "function"
    },
    {
      "inputs": [],
      "name": "registry",
      "outputs": [
        {
          "internalType": "contract CredTrustRegistry",
          "name": "",
          "type": "address"
        }
      ],
      "stateMutability": "view",
      "type": "function"
    }
  ],
  "bytecode": "0x608060405234801561001057600080fd5b50604051610d72380380610d7283398181016040528101906100329190610213565b806000806101000a81548173ffffffffffffffffffffffffffffffffffffffff021916908373ffffffffffffffffffffffffffffffffffffffff16021790555060016040518060800160405280670de0b6b3a764000081526020016101f4815260200162278d00815260200160001515815250908060018154018082558091505060019003906000526020600020906004020160009091909190915060008201518160000155602082015181600101556040820151816002015560608201518160030160006101000a81548160ff021916908315150217905550505060016040518060800160405280674563918244f40000815260200161012c81526020016276a700815260200160011515815250908060018154018082558091505060019003906000526020600020906004020160009091909190915060008201518160000155602082015181600101556040820151816002015560608201518160030160006101000a81548160ff021916908315150217905550505050610240565b600080fd5b600073ffffffffffffffffffffffffffffffffffffffff82169050919050565b60006101e0826101b5565b9050919050565b6101f0816101d5565b81146101fb57600080fd5b50565b60008151905061020d816101e7565b92915050565b600060208284031215610229576102286101b0565b5b6000610237848285016101fe565b91505092915050565b610b238061024f6000396000f3fe608060405234801561001057600080fd5b506004361061007d5760003560e01c806340b892701161005b57806340b89270146100ea5780637b10399914610108578063f6bc77fc14610126578063ffd3f862146101595761007d565b8063128c5c1b1461008257806321363f7e146100b2578063404d47ab146100ce575b600080fd5b61009c600480360381019061009791906105e7565b610177565b6040516100a99190610693565b60405180910390f35b6100cc60048036038101906100c791906106da565b610233565b005b6100e860048036038101906100e391906105e7565b6102c7565b005b6100f26104fe565b6040516100ff9190610750565b60405180910390f35b610110610504565b60405161011d91906107ea565b60405180910390f35b610140600480360381019061013b91906105e7565b610528565b6040516101509493929190610814565b60405180910390f35b610161610575565b60405161016e9190610750565b60405180910390f35b61017f610582565b60018054905082106101c6576040517f08c379a00000000000000000000000000000000000000000000000000000000081526004016101bd906108b6565b60405180910390fd5b600182815481106101da576101d96108d6565b5b90600052602060002090600402016040518060800160405290816000820154815260200160018201548152602001600282015481526020016003820160009054906101000a900460ff1615151515815250509050919050565b60016040518060800160405280868152602001858152602001848152602001831515815250908060018154018082558091505060019003906000526020600020906004020160009091909190915060008201518160000155602082015181600101556040820151816002015560608201518160030160006101000a81548160ff021916908315150217905550505050505050565b600180549050811061030e576040517f08c379a000000000000000000000000000000000000000000000000000000000815260040161030590610951565b60405180910390fd5b600060018281548110610324576103236108d6565b5b90600052602060002090600402016040518060800160405290816000820154815260200160018201548152602001600282015481526020016003820160009054906101000a900460ff161515151581525050905060008060009054906101000a900473ffffffffffffffffffffffffffffffffffffffff1673ffffffffffffffffffffffffffffffffffffffff1663d47875d0336040518263ffffffff1660e01b81526004016103d49190610992565b602060405180830381865afa1580156103f1573d6000803e3d6000fd5b505050506040513d601f19601f8201168201806040525081019061041591906109c2565b90506102bc81101561045c576040517f08c379a000000000000000000000000000000000000000000000000000000000815260040161045390610a3b565b60405180910390fd5b81606001516104ab576102ee8110156104aa576040517f08c379a00000000000000000000000000000000000000000000000000000000081526004016104a190610acd565b60405180910390fd5b5b3373ffffffffffffffffffffffffffffffffffffffff167f93e6d20b2134c2834b2d150cb5d87de9e77bde683f944766c3c45b793ba8ddad846040516104f19190610750565b60405180910390a2505050565b6102bc81565b60008054906101000a900473ffffffffffffffffffffffffffffffffffffffff1681565b6001818154811061053857600080fd5b90600052602060002090600402016000915090508060000154908060010154908060020154908060030160009054906101000a900460ff16905084565b6000600180549050905090565b60405180608001604052806000815260200160008152602001600081526020016000151581525090565b600080fd5b6000819050919050565b6105c4816105b1565b81146105cf57600080fd5b50565b6000813590506105e1816105bb565b92915050565b6000602082840312156105fd576105fc6105ac565b5b600061060b848285016105d2565b91505092915050565b61061d816105b1565b82525050565b60008115159050919050565b61063881610623565b82525050565b6080820160008201516106546000850182610614565b5060208201516106676020850182610614565b50604082015161067a6040850182610614565b50606082015161068d606085018261062f565b50505050565b60006080820190506106a8600083018461063e565b92915050565b6106b781610623565b81146106c257600080fd5b50565b6000813590506106d4816106ae565b92915050565b600080600080608085870312156106f4576106f36105ac565b5b6000610702878288016105d2565b9450506020610713878288016105d2565b9350506040610724878288016105d2565b9250506060610735878288016106c5565b91505092959194509250565b61074a816105b1565b82525050565b60006020820190506107656000830184610741565b92915050565b600073ffffffffffffffffffffffffffffffffffffffff82169050919050565b6000819050919050565b60006107b06107ab6107a68461076b565b61078b565b61076b565b9050919050565b60006107c282610795565b9050919050565b60006107d4826107b7565b9050919050565b6107e4816107c9565b82525050565b60006020820190506107ff60008301846107db565b92915050565b61080e81610623565b82525050565b60006080820190506108296000830187610741565b6108366020830186610741565b6108436040830185610741565b6108506060830184610805565b95945050505050565b600082825260208201905092915050565b7f496e76616c69642070726f6475637420696e6465780000000000000000000000600082015250565b60006108a0601583610859565b91506108ab8261086a565b602082019050919050565b600060208201905081810360008301526108cf81610893565b9050919050565b7f4e487b7100000000000000000000000000000000000000000000000000000000600052603260045260246000fd5b7f496e76616c69642070726f647563740000000000000000000000000000000000600082015250565b600061093b600f83610859565b915061094682610905565b602082019050919050565b6000602082019050818103600083015261096a8161092e565b9050919050565b600061097c8261076b565b9050919050565b61098c81610971565b82525050565b60006020820190506109a76000830184610983565b92915050565b6000815190506109bc816105bb565b92915050565b6000602082840312156109d8576109d76105ac565b5b60006109e6848285016109ad565b91505092915050565b7f4372656469742073636f726520746f6f206c6f77000000000000000000000000600082015250565b6000610a25601483610859565b9150610a30826109ef565b602082019050919050565b60006020820190508181036000830152610a5481610a18565b9050919050565b7f4869676865722073636f726520726571756972656420666f7220756e636f6c6c60008201527f61746572616c697a656400000000000000000000000000000000000000000000602082015250565b6000610ab7602a83610859565b9150610ac282610a5b565b604082019050919050565b60006020820190508181036000830152610ae681610aaa565b905091905056fea264697066735822122091e373734a32e285cd7bac144aaf4fd844aa242c116c06c3f903c48e655f88c764736f6c63430008140033",
  "linkReferences": {},
  "deployedLinkReferences": {}
}