{
  "_format": "hh-sol-artifact-1",
  "contractName": "ScoreCalculator",
  "sourceName": "contracts/ScoreCalculator.sol",
  "abi": [
    {
      "inputs": [
        {
          "components": [
            {
              "internalType": "uint256",
              "name": "aaveRepayments",
              "type": "uint256"
            },
            {
              "internalType": "uint256",
              "name": "uniswapLpDuration",
              "type": "uint256"
            },
            {
              "internalType": "uint256",
              "name": "stakedAmount",
              "type": "uint256"
            },
            {
              "internalType": "uint256",
              "name": "transactionVolume",
              "type": "uint256"
            },
            {
              "internalType": "uint256",
              "name": "identityVerified",
              "type": "uint256"
            }
          ],
          "internalType": "struct ScoreCalculator.ScoreFactors",
          "name": "factors",
          "type": "tuple"
        }
      ],
      "name": "calculateScore",
      "outputs": [
        {
          "internalType": "uint256",
          "name": "",
          "type": "uint256"
        }
      ],
      "stateMutability": "pure",
      "type": "function"
    }
  ],
  "bytecode": "0x608060405234801561001057600080fd5b5061047c806100206000396000f3fe608060405234801561001057600080fd5b506004361061002b5760003560e01c8063265555a514610030575b600080fd5b61004a600480360381019061004591906102ea565b610060565b6040516100579190610326565b60405180910390f35b60008060009050606461015e846000015161007b9190610370565b61008591906103e1565b816100909190610412565b9050606460fa84602001516100a59190610370565b6100af91906103e1565b816100ba9190610412565b90506000683635c9adc5dea00000606485604001516100d99190610370565b6100e391906103e1565b905060648111156100f357606490505b606460fa826101029190610370565b61010c91906103e1565b826101179190610412565b9150606480856060015161012b9190610370565b61013591906103e1565b826101409190610412565b91506064603285608001516101559190610370565b61015f91906103e1565b8261016a9190610412565b9150610384821161017b578161017f565b6103845b92505050919050565b6000604051905090565b600080fd5b600080fd5b6000601f19601f8301169050919050565b7f4e487b7100000000000000000000000000000000000000000000000000000000600052604160045260246000fd5b6101e58261019c565b810181811067ffffffffffffffff82111715610204576102036101ad565b5b80604052505050565b6000610217610188565b905061022382826101dc565b919050565b6000819050919050565b61023b81610228565b811461024657600080fd5b50565b60008135905061025881610232565b92915050565b600060a0828403121561027457610273610197565b5b61027e60a061020d565b9050600061028e84828501610249565b60008301525060206102a284828501610249565b60208301525060406102b684828501610249565b60408301525060606102ca84828501610249565b60608301525060806102de84828501610249565b60808301525092915050565b600060a08284031215610300576102ff610192565b5b600061030e8482850161025e565b91505092915050565b61032081610228565b82525050565b600060208201905061033b6000830184610317565b92915050565b7f4e487b7100000000000000000000000000000000000000000000000000000000600052601160045260246000fd5b600061037b82610228565b915061038683610228565b925082820261039481610228565b915082820484148315176103ab576103aa610341565b5b5092915050565b7f4e487b7100000000000000000000000000000000000000000000000000000000600052601260045260246000fd5b60006103ec82610228565b91506103f783610228565b925082610407576104066103b2565b5b828204905092915050565b600061041d82610228565b915061042883610228565b92508282019050808211156104405761043f610341565b5b9291505056fea26469706673582212203502c902f5696f812c41cc0c1e7bdbfb8ac531c7236c728dd43d09034f3e56cb64736f6c63430008140033",
  "linkReferences": {},
  "deployedLinkReferences": {}
}