{
  "_format": "hh-sol-artifact-1",
  "contractName": "ScoreCalculator",
  "sourceName": "contracts/ScoreCalculator.sol",
  "abi": [
    {
      "inputs": [
        {
          "components": [
            {
              "internalType": "uint256",
              "name": "aaveRepayments",
              "type": "uint256"
            },
            {
              "internalType": "uint256",
              "name": "uniswapLpDuration",
              "type": "uint256"
            },
            {
              "internalType": "uint256",
              "name": "stakingAge",
              "type": "uint256"
            },
            {
              "internalType": "uint256",
              "name": "transactionVolume",
              "type": "uint256"
            },
            {
              "internalType": "uint256",
              "name": "identityVerified",
              "type": "uint256"
            }
          ],
          "internalType": "struct ScoreCalculator.ScoreFactors",
          "name": "factors",
          "type": "tuple"
        }
      ],
      "name": "calculateScore",
      "outputs": [
        {
          "internalType": "uint256",
          "name": "",
          "type": "uint256"
        }
      ],
      "stateMutability": "pure",
      "type": "function"
    }
  ],
  "bytecode": "0x608060405234801561001057600080fd5b5061044a806100206000396000f3fe608060405234801561001057600080fd5b506004361061002b5760003560e01c8063265555a514610030575b600080fd5b61004a600480360381019061004591906102b8565b610060565b60405161005791906102f4565b60405180910390f35b600080600090506064610190846000015161007b919061033e565b61008591906103af565b8161009091906103e0565b9050606461012c84602001516100a6919061033e565b6100b091906103af565b816100bb91906103e0565b9050606460c884604001516100d0919061033e565b6100da91906103af565b816100e591906103e0565b90506064603284606001516100fa919061033e565b61010491906103af565b8161010f91906103e0565b9050606460328460800151610124919061033e565b61012e91906103af565b8161013991906103e0565b9050610384811161014a578061014e565b6103845b915050919050565b6000604051905090565b600080fd5b600080fd5b6000601f19601f8301169050919050565b7f4e487b7100000000000000000000000000000000000000000000000000000000600052604160045260246000fd5b6101b38261016a565b810181811067ffffffffffffffff821117156101d2576101d161017b565b5b80604052505050565b60006101e5610156565b90506101f182826101aa565b919050565b6000819050919050565b610209816101f6565b811461021457600080fd5b50565b60008135905061022681610200565b92915050565b600060a0828403121561024257610241610165565b5b61024c60a06101db565b9050600061025c84828501610217565b600083015250602061027084828501610217565b602083015250604061028484828501610217565b604083015250606061029884828501610217565b60608301525060806102ac84828501610217565b60808301525092915050565b600060a082840312156102ce576102cd610160565b5b60006102dc8482850161022c565b91505092915050565b6102ee816101f6565b82525050565b600060208201905061030960008301846102e5565b92915050565b7f4e487b7100000000000000000000000000000000000000000000000000000000600052601160045260246000fd5b6000610349826101f6565b9150610354836101f6565b9250828202610362816101f6565b915082820484148315176103795761037861030f565b5b5092915050565b7f4e487b7100000000000000000000000000000000000000000000000000000000600052601260045260246000fd5b60006103ba826101f6565b91506103c5836101f6565b9250826103d5576103d4610380565b5b828204905092915050565b60006103eb826101f6565b91506103f6836101f6565b925082820190508082111561040e5761040d61030f565b5b9291505056fea264697066735822122012a3ca643059c27714510a1928309955cb5483b9e80334d4056eccc305cceb5e64736f6c63430008140033",
  "linkReferences": {},
  "deployedLinkReferences": {}
}