{
  "_format": "hh-sol-artifact-1",
  "contractName": "TrustSwap",
  "sourceName": "contracts/TrustSwap.sol",
  "abi": [
    {
      "inputs": [
        {
          "internalType": "address",
          "name": "_trustTokenAddress",
          "type": "address"
        }
      ],
      "stateMutability": "nonpayable",
      "type": "constructor"
    },
    {
      "anonymous": false,
      "inputs": [
        {
          "indexed": true,
          "internalType": "address",
          "name": "user",
          "type": "address"
        },
        {
          "indexed": false,
          "internalType": "uint256",
          "name": "ethAmount",
          "type": "uint256"
        },
        {
          "indexed": false,
          "internalType": "uint256",
          "name": "tokenAmount",
          "type": "uint256"
        }
      ],
      "name": "TokensSwapped",
      "type": "event"
    },
    {
      "inputs": [
        {
          "internalType": "uint256",
          "name": "newRate",
          "type": "uint256"
        }
      ],
      "name": "setSwapRate",
      "outputs": [],
      "stateMutability": "nonpayable",
      "type": "function"
    },
    {
      "inputs": [],
      "name": "swapRate",
      "outputs": [
        {
          "internalType": "uint256",
          "name": "",
          "type": "uint256"
        }
      ],
      "stateMutability": "view",
      "type": "function"
    },
    {
      "inputs": [],
      "name": "swapTokens",
      "outputs": [],
      "stateMutability": "payable",
      "type": "function"
    },
    {
      "inputs": [],
      "name": "trustToken",
      "outputs": [
        {
          "internalType": "contract TrustToken",
          "name": "",
          "type": "address"
        }
      ],
      "stateMutability": "view",
      "type": "function"
    },
    {
      "inputs": [],
      "name": "withdrawETH",
      "outputs": [],
      "stateMutability": "nonpayable",
      "type": "function"
    }
  ],
  "bytecode": "0x6080604052606460015534801561001557600080fd5b5060405161089c38038061089c833981810160405281019061003791906100e0565b806000806101000a81548173ffffffffffffffffffffffffffffffffffffffff021916908373ffffffffffffffffffffffffffffffffffffffff1602179055505061010d565b600080fd5b600073ffffffffffffffffffffffffffffffffffffffff82169050919050565b60006100ad82610082565b9050919050565b6100bd816100a2565b81146100c857600080fd5b50565b6000815190506100da816100b4565b92915050565b6000602082840312156100f6576100f561007d565b5b6000610104848285016100cb565b91505092915050565b6107808061011c6000396000f3fe60806040526004361061004a5760003560e01c8063698518e51461004f57806373d002241461007a578063d13deb2f14610084578063e086e5ec146100af578063f4cde469146100c6575b600080fd5b34801561005b57600080fd5b506100646100ef565b60405161007191906103a8565b60405180910390f35b6100826100f5565b005b34801561009057600080fd5b506100996102d5565b6040516100a69190610442565b60405180910390f35b3480156100bb57600080fd5b506100c46102f9565b005b3480156100d257600080fd5b506100ed60048036038101906100e8919061048e565b610342565b005b60015481565b60006001543461010591906104ea565b90508060008054906101000a900473ffffffffffffffffffffffffffffffffffffffff1673ffffffffffffffffffffffffffffffffffffffff166370a08231306040518263ffffffff1660e01b8152600401610161919061054d565b602060405180830381865afa15801561017e573d6000803e3d6000fd5b505050506040513d601f19601f820116820180604052508101906101a2919061057d565b10156101e3576040517f08c379a00000000000000000000000000000000000000000000000000000000081526004016101da90610607565b60405180910390fd5b60008054906101000a900473ffffffffffffffffffffffffffffffffffffffff1673ffffffffffffffffffffffffffffffffffffffff1663a9059cbb33836040518363ffffffff1660e01b815260040161023e929190610627565b6020604051808303816000875af115801561025d573d6000803e3d6000fd5b505050506040513d601f19601f820116820180604052508101906102819190610688565b503373ffffffffffffffffffffffffffffffffffffffff167f18704ae982dcd24a1beeeed3ecf045ab0520d7b7519b97adf3e4f40bf7efe33934836040516102ca9291906106b5565b60405180910390a250565b60008054906101000a900473ffffffffffffffffffffffffffffffffffffffff1681565b3373ffffffffffffffffffffffffffffffffffffffff166108fc479081150290604051600060405180830381858888f1935050505015801561033f573d6000803e3d6000fd5b50565b60008111610385576040517f08c379a000000000000000000000000000000000000000000000000000000000815260040161037c9061072a565b60405180910390fd5b8060018190555050565b6000819050919050565b6103a28161038f565b82525050565b60006020820190506103bd6000830184610399565b92915050565b600073ffffffffffffffffffffffffffffffffffffffff82169050919050565b6000819050919050565b60006104086104036103fe846103c3565b6103e3565b6103c3565b9050919050565b600061041a826103ed565b9050919050565b600061042c8261040f565b9050919050565b61043c81610421565b82525050565b60006020820190506104576000830184610433565b92915050565b600080fd5b61046b8161038f565b811461047657600080fd5b50565b60008135905061048881610462565b92915050565b6000602082840312156104a4576104a361045d565b5b60006104b284828501610479565b91505092915050565b7f4e487b7100000000000000000000000000000000000000000000000000000000600052601160045260246000fd5b60006104f58261038f565b91506105008361038f565b925082820261050e8161038f565b91508282048414831517610525576105246104bb565b5b5092915050565b6000610537826103c3565b9050919050565b6105478161052c565b82525050565b6000602082019050610562600083018461053e565b92915050565b60008151905061057781610462565b92915050565b6000602082840312156105935761059261045d565b5b60006105a184828501610568565b91505092915050565b600082825260208201905092915050565b7f496e73756666696369656e7420636f6e74726163742062616c616e6365000000600082015250565b60006105f1601d836105aa565b91506105fc826105bb565b602082019050919050565b60006020820190508181036000830152610620816105e4565b9050919050565b600060408201905061063c600083018561053e565b6106496020830184610399565b9392505050565b60008115159050919050565b61066581610650565b811461067057600080fd5b50565b6000815190506106828161065c565b92915050565b60006020828403121561069e5761069d61045d565b5b60006106ac84828501610673565b91505092915050565b60006040820190506106ca6000830185610399565b6106d76020830184610399565b9392505050565b7f496e76616c696420726174650000000000000000000000000000000000000000600082015250565b6000610714600c836105aa565b915061071f826106de565b602082019050919050565b6000602082019050818103600083015261074381610707565b905091905056fea2646970667358221220ef038804b3ea1786f4e293890bd874eb46425b372cfe654652e0184313856e6b64736f6c63430008140033",
  "linkReferences": {},
  "deployedLinkReferences": {}
}