{
  "_format": "hh-sol-artifact-1",
  "contractName": "Uniswap_LP",
  "sourceName": "contracts/UNISWAP_LP.sol",
  "abi": [
    {
      "anonymous": false,
      "inputs": [
        {
          "indexed": true,
          "internalType": "address",
          "name": "user",
          "type": "address"
        },
        {
          "indexed": false,
          "internalType": "uint256",
          "name": "timestamp",
          "type": "uint256"
        }
      ],
      "name": "LPDeposited",
      "type": "event"
    },
    {
      "inputs": [],
      "name": "depositLP",
      "outputs": [],
      "stateMutability": "nonpayable",
      "type": "function"
    },
    {
      "inputs": [
        {
          "internalType": "address",
          "name": "user",
          "type": "address"
        }
      ],
      "name": "getLPDuration",
      "outputs": [
        {
          "internalType": "uint256",
          "name": "",
          "type": "uint256"
        }
      ],
      "stateMutability": "view",
      "type": "function"
    },
    {
      "inputs": [
        {
          "internalType": "address",
          "name": "",
          "type": "address"
        }
      ],
      "name": "lpDepositTimestamp",
      "outputs": [
        {
          "internalType": "uint256",
          "name": "",
          "type": "uint256"
        }
      ],
      "stateMutability": "view",
      "type": "function"
    }
  ],
  "bytecode": "0x608060405234801561001057600080fd5b5061036a806100206000396000f3fe608060405234801561001057600080fd5b50600436106100415760003560e01c806326161ef91461004657806340011ef3146100505780634fbd010314610080575b600080fd5b61004e6100b0565b005b61006a60048036038101906100659190610270565b61018a565b60405161007791906102b6565b60405180910390f35b61009a60048036038101906100959190610270565b6101f5565b6040516100a791906102b6565b60405180910390f35b60008060003373ffffffffffffffffffffffffffffffffffffffff1673ffffffffffffffffffffffffffffffffffffffff168152602001908152602001600020540361018857426000803373ffffffffffffffffffffffffffffffffffffffff1673ffffffffffffffffffffffffffffffffffffffff168152602001908152602001600020819055503373ffffffffffffffffffffffffffffffffffffffff167f3a641a8ea787d02239803c6a6b5f77d766a0394243bfdab244919827c610203e4260405161017f91906102b6565b60405180910390a25b565b6000806000808473ffffffffffffffffffffffffffffffffffffffff1673ffffffffffffffffffffffffffffffffffffffff168152602001908152602001600020549050600081036101e05760009150506101f0565b80426101ec9190610300565b9150505b919050565b60006020528060005260406000206000915090505481565b600080fd5b600073ffffffffffffffffffffffffffffffffffffffff82169050919050565b600061023d82610212565b9050919050565b61024d81610232565b811461025857600080fd5b50565b60008135905061026a81610244565b92915050565b6000602082840312156102865761028561020d565b5b60006102948482850161025b565b91505092915050565b6000819050919050565b6102b08161029d565b82525050565b60006020820190506102cb60008301846102a7565b92915050565b7f4e487b7100000000000000000000000000000000000000000000000000000000600052601160045260246000fd5b600061030b8261029d565b91506103168361029d565b925082820390508181111561032e5761032d6102d1565b5b9291505056fea264697066735822122090b1b7657546af0b2b0382737ac6e73f319c32e51ccb3ab8d7d9ad16cd689f3b64736f6c63430008140033",
  "linkReferences": {},
  "deployedLinkReferences": {}
}